{
  "contractName": "CognitiveJobFactory",
  "abi": [
    {
      "constant": false,
      "inputs": [
        {
          "name": "_kernel",
          "type": "address"
        },
        {
          "name": "_dataset",
          "type": "address"
        },
        {
          "name": "_workersPool",
          "type": "address[]"
        },
        {
          "name": "_workersPool",
          "type": "address[]"
        }
      ],
      "name": "create",
      "outputs": [
        {
          "name": "o_cognitiveJob",
          "type": "address"
        }
      ],
      "payable": false,
      "stateMutability": "nonpayable",
      "type": "function"
    },
    {
      "inputs": [],
      "payable": false,
      "stateMutability": "view",
      "type": "function",
      "constant": true,
      "name": "owner",
      "outputs": [
        {
          "name": "",
          "type": "address"
        }
      ]
    },
    {
      "constant": false,
      "inputs": [
        {
          "name": "newOwner",
          "type": "address"
        }
      ],
      "name": "transferOwnership",
      "outputs": [],
      "payable": false,
      "stateMutability": "nonpayable",
      "type": "function"
    },
    {
      "inputs": [],
      "payable": false,
      "stateMutability": "nonpayable",
      "type": "constructor"
    },
    {
      "anonymous": false,
      "inputs": [
        {
          "indexed": true,
          "name": "previousOwner",
          "type": "address"
        },
        {
          "indexed": true,
          "name": "newOwner",
          "type": "address"
        }
      ],
      "name": "OwnershipTransferred",
      "type": "event"
    }
  ],
  "bytecode": "0x6060604052341561000f57600080fd5b336000806101000a81548173ffffffffffffffffffffffffffffffffffffffff021916908373ffffffffffffffffffffffffffffffffffffffff1602179055506142cc8061005e6000396000f300606060405260043610610057576000357c0100000000000000000000000000000000000000000000000000000000900463ffffffff1680631c695d2b1461005c5780638da5cb5b14610108578063f2fde38b1461015d575b600080fd5b341561006757600080fd5b6100c6600480803573ffffffffffffffffffffffffffffffffffffffff1690602001909190803573ffffffffffffffffffffffffffffffffffffffff169060200190919080359060200190820180359060200191909192905050610196565b604051808273ffffffffffffffffffffffffffffffffffffffff1673ffffffffffffffffffffffffffffffffffffffff16815260200191505060405180910390f35b341561011357600080fd5b61011b610408565b604051808273ffffffffffffffffffffffffffffffffffffffff1673ffffffffffffffffffffffffffffffffffffffff16815260200191505060405180910390f35b341561016857600080fd5b610194600480803573ffffffffffffffffffffffffffffffffffffffff1690602001909190505061042d565b005b60008060009054906101000a900473ffffffffffffffffffffffffffffffffffffffff1673ffffffffffffffffffffffffffffffffffffffff163373ffffffffffffffffffffffffffffffffffffffff161415156101f357600080fd5b6000809054906101000a900473ffffffffffffffffffffffffffffffffffffffff1685858585610221610582565b808673ffffffffffffffffffffffffffffffffffffffff1673ffffffffffffffffffffffffffffffffffffffff1681526020018573ffffffffffffffffffffffffffffffffffffffff1673ffffffffffffffffffffffffffffffffffffffff1681526020018473ffffffffffffffffffffffffffffffffffffffff1673ffffffffffffffffffffffffffffffffffffffff16815260200180602001828103825284848281815260200192506020028082843782019150509650505050505050604051809103906000f08015156102f657600080fd5b9050600073ffffffffffffffffffffffffffffffffffffffff168173ffffffffffffffffffffffffffffffffffffffff161415151561033157fe5b8073ffffffffffffffffffffffffffffffffffffffff1663f2fde38b6000809054906101000a900473ffffffffffffffffffffffffffffffffffffffff166040518263ffffffff167c0100000000000000000000000000000000000000000000000000000000028152600401808273ffffffffffffffffffffffffffffffffffffffff1673ffffffffffffffffffffffffffffffffffffffff168152602001915050600060405180830381600087803b15156103ec57600080fd5b6102c65a03f115156103fd57600080fd5b505050949350505050565b6000809054906101000a900473ffffffffffffffffffffffffffffffffffffffff1681565b6000809054906101000a900473ffffffffffffffffffffffffffffffffffffffff1673ffffffffffffffffffffffffffffffffffffffff163373ffffffffffffffffffffffffffffffffffffffff1614151561048857600080fd5b600073ffffffffffffffffffffffffffffffffffffffff168173ffffffffffffffffffffffffffffffffffffffff16141515156104c457600080fd5b8073ffffffffffffffffffffffffffffffffffffffff166000809054906101000a900473ffffffffffffffffffffffffffffffffffffffff1673ffffffffffffffffffffffffffffffffffffffff167f8be0079c531659141344cd1fd0a4f28419497f9722a3daafe3b4186f6b6457e060405160405180910390a3806000806101000a81548173ffffffffffffffffffffffffffffffffffffffff021916908373ffffffffffffffffffffffffffffffffffffffff16021790555050565b604051613d0d806200059483390190560060606040526000601260006101000a81548160ff021916908360ff16021790555034156200002c57600080fd5b60405162003d0d38038062003d0d83398101604052808051906020019091908051906020019091908051906020019091908051820191905050336000806101000a81548173ffffffffffffffffffffffffffffffffffffffff021916908373ffffffffffffffffffffffffffffffffffffffff1602179055508173ffffffffffffffffffffffffffffffffffffffff166387ea09616000604051602001526040518163ffffffff167c0100000000000000000000000000000000000000000000000000000000028152600401602060405180830381600087803b15156200011257600080fd5b6102c65a03f115156200012457600080fd5b50505060405180519050600d60146101000a81548160ff021916908360ff1602179055506000600d60149054906101000a900460ff1660ff161115156200016a57600080fd5b600d60149054906101000a900460ff1660ff168151101515156200018d57600080fd5b600073ffffffffffffffffffffffffffffffffffffffff168473ffffffffffffffffffffffffffffffffffffffff1614151515620001ca57600080fd5b600073ffffffffffffffffffffffffffffffffffffffff168373ffffffffffffffffffffffffffffffffffffffff16141515156200020757600080fd5b600073ffffffffffffffffffffffffffffffffffffffff168273ffffffffffffffffffffffffffffffffffffffff16141515156200024457600080fd5b83600b60006101000a81548173ffffffffffffffffffffffffffffffffffffffff021916908373ffffffffffffffffffffffffffffffffffffffff16021790555082600c60006101000a81548173ffffffffffffffffffffffffffffffffffffffff021916908373ffffffffffffffffffffffffffffffffffffffff16021790555081600d60006101000a81548173ffffffffffffffffffffffffffffffffffffffff021916908373ffffffffffffffffffffffffffffffffffffffff16021790555080600f90805190602001906200031f92919062000696565b506200033e620003486401000000000262002df0176401000000009004565b50505050620009a8565b600060096001019050602060405190810160405280600160ff1660ff168152508160008060ff1660ff1681526020019081526020016000209060016200039092919062000725565b506040805190810160405280600260ff1660ff168152602001600360ff1660ff16815250816000600160ff1660ff168152602001908152602001600020906002620003dd929190620007d3565b50606060405190810160405280600460ff1660ff168152602001600560ff1660ff168152602001600260ff1660ff16815250816000600360ff1660ff1681526020019081526020016000209060036200043892919062000881565b506040805190810160405280600760ff1660ff168152602001600660ff1660ff16815250816000600560ff1660ff16815260200190815260200160002090600262000485929190620007d3565b50620004a4620004c66401000000000262002f50176401000000009004565b6000600960000160016101000a81548160ff021916908360ff16021790555050565b6040805190810160405280601181526020017f5f696e697453746174654d616368696e65000000000000000000000000000000815250600015156008826040518082805190602001908083835b6020831015156200053a578051825260208201915060208101905060208303925062000513565b6001836020036101000a038019825116818451168082178552505050505050905001915050908152602001604051809103902060009054906101000a900460ff1615151415156200058a57600080fd5b620005aa60096200063364010000000002620030a2176401000000009004565b60016008826040518082805190602001908083835b602083101515620005e65780518252602082019150602081019050602083039250620005bf565b6001836020036101000a038019825116818451168082178552505050505050905001915050908152602001604051809103902060006101000a81548160ff02191690831515021790555050565b600015158160000160009054906101000a900460ff1615151415156200065857600080fd5b60018160000160016101000a81548160ff021916908360ff16021790555060018160000160006101000a81548160ff02191690831515021790555050565b82805482825590600052602060002090810192821562000712579160200282015b82811115620007115782518260006101000a81548173ffffffffffffffffffffffffffffffffffffffff021916908373ffffffffffffffffffffffffffffffffffffffff16021790555091602001919060010190620006b7565b5b5090506200072191906200092f565b5090565b82805482825590600052602060002090601f01602090048101928215620007c05791602002820160005b838211156200078f57835183826101000a81548160ff021916908360ff16021790555092602001926001016020816000010492830192600103026200074f565b8015620007be5782816101000a81549060ff02191690556001016020816000010492830192600103026200078f565b505b509050620007cf919062000975565b5090565b82805482825590600052602060002090601f016020900481019282156200086e5791602002820160005b838211156200083d57835183826101000a81548160ff021916908360ff1602179055509260200192600101602081600001049283019260010302620007fd565b80156200086c5782816101000a81549060ff02191690556001016020816000010492830192600103026200083d565b505b5090506200087d919062000975565b5090565b82805482825590600052602060002090601f016020900481019282156200091c5791602002820160005b83821115620008eb57835183826101000a81548160ff021916908360ff1602179055509260200192600101602081600001049283019260010302620008ab565b80156200091a5782816101000a81549060ff0219169055600101602081600001049283019260010302620008eb565b505b5090506200092b919062000975565b5090565b6200097291905b808211156200096e57600081816101000a81549073ffffffffffffffffffffffffffffffffffffffff02191690555060010162000936565b5090565b90565b620009a591905b80821115620009a157600081816101000a81549060ff0219169055506001016200097c565b5090565b90565b61335580620009b86000396000f300606060405260043610610180576000357c0100000000000000000000000000000000000000000000000000000000900463ffffffff168063026d49ea1461018557806302b728ab146101b45780630c3f6acf146102095780630fb03aad146102385780631590d658146102d45780631a0bc596146103035780631c72fad41461035857806321514ef3146103875780634804b4ba146103b65780634e6b42a8146103df578063577bd3361461040d578063589094001461043c5780635cb045db1461049f5780635e405967146104ce57806364d3414c146105315780636936087d146105565780638129fc1c1461057c57806383197ef0146105915780638da5cb5b146105a6578063b225be42146105fb578063c36b33b014610621578063cbd315ae14610650578063cc0e82c11461067f578063cfdf677e146106ae578063d4aae0c4146106dd578063d6ccdca314610732578063d94c69aa1461076d578063e06452d01461079b578063f2fde38b146107ca578063f5074f4114610803575b600080fd5b341561019057600080fd5b61019861083c565b604051808260ff1660ff16815260200191505060405180910390f35b34156101bf57600080fd5b6101c7610841565b604051808273ffffffffffffffffffffffffffffffffffffffff1673ffffffffffffffffffffffffffffffffffffffff16815260200191505060405180910390f35b341561021457600080fd5b61021c610867565b604051808260ff1660ff16815260200191505060405180910390f35b341561024357600080fd5b6102596004808035906020019091905050610881565b6040518080602001828103825283818151815260200191508051906020019080838360005b8381101561029957808201518184015260208101905061027e565b50505050905090810190601f1680156102c65780820380516001836020036101000a031916815260200191505b509250505060405180910390f35b34156102df57600080fd5b6102e761093d565b604051808260ff1660ff16815260200191505060405180910390f35b341561030e57600080fd5b610316610942565b604051808273ffffffffffffffffffffffffffffffffffffffff1673ffffffffffffffffffffffffffffffffffffffff16815260200191505060405180910390f35b341561036357600080fd5b61036b610968565b604051808260ff1660ff16815260200191505060405180910390f35b341561039257600080fd5b61039a61096d565b604051808260ff1660ff16815260200191505060405180910390f35b34156103c157600080fd5b6103c9610972565b6040518082815260200191505060405180910390f35b34156103ea57600080fd5b61040b6004808035906020019082018035906020019190919290505061097f565b005b341561041857600080fd5b610420610b3f565b604051808260ff1660ff16815260200191505060405180910390f35b341561044757600080fd5b61045d6004808035906020019091905050610b52565b604051808273ffffffffffffffffffffffffffffffffffffffff1673ffffffffffffffffffffffffffffffffffffffff16815260200191505060405180910390f35b34156104aa57600080fd5b6104b2610b91565b604051808260ff1660ff16815260200191505060405180910390f35b34156104d957600080fd5b6104ef6004808035906020019091905050610b96565b604051808273ffffffffffffffffffffffffffffffffffffffff1673ffffffffffffffffffffffffffffffffffffffff16815260200191505060405180910390f35b341561053c57600080fd5b61055460048080351515906020019091905050610bd5565b005b341561056157600080fd5b61057a600480803560ff16906020019091905050610d52565b005b341561058757600080fd5b61058f610e99565b005b341561059c57600080fd5b6105a46113b0565b005b34156105b157600080fd5b6105b9611445565b604051808273ffffffffffffffffffffffffffffffffffffffff1673ffffffffffffffffffffffffffffffffffffffff16815260200191505060405180910390f35b341561060657600080fd5b61061f600480803560ff1690602001909190505061146a565b005b341561062c57600080fd5b610634611605565b604051808260ff1660ff16815260200191505060405180910390f35b341561065b57600080fd5b61066361160a565b604051808260ff1660ff16815260200191505060405180910390f35b341561068a57600080fd5b61069261160f565b604051808260ff1660ff16815260200191505060405180910390f35b34156106b957600080fd5b6106c1611614565b604051808260ff1660ff16815260200191505060405180910390f35b34156106e857600080fd5b6106f0611627565b604051808273ffffffffffffffffffffffffffffffffffffffff1673ffffffffffffffffffffffffffffffffffffffff16815260200191505060405180910390f35b341561073d57600080fd5b610753600480803590602001909190505061164d565b604051808215151515815260200191505060405180910390f35b610799600480803573ffffffffffffffffffffffffffffffffffffffff1690602001909190505061168c565b005b34156107a657600080fd5b6107ae611731565b604051808260ff1660ff16815260200191505060405180910390f35b34156107d557600080fd5b610801600480803573ffffffffffffffffffffffffffffffffffffffff16906020019091905050611736565b005b341561080e57600080fd5b61083a600480803573ffffffffffffffffffffffffffffffffffffffff1690602001909190505061188b565b005b600681565b600d60009054906101000a900473ffffffffffffffffffffffffffffffffffffffff1681565b6000600960000160019054906101000a900460ff16905090565b60138181548110151561089057fe5b90600052602060002090016000915090508054600181600116156101000203166002900480601f0160208091040260200160405190810160405280929190818152602001828054600181600116156101000203166002900480156109355780601f1061090a57610100808354040283529160200191610935565b820191906000526020600020905b81548152906001019060200180831161091857829003601f168201915b505050505081565b600581565b600b60009054906101000a900473ffffffffffffffffffffffffffffffffffffffff1681565b600081565b600181565b6000600e80549050905090565b60008061098a6118ff565b509050600073ffffffffffffffffffffffffffffffffffffffff168173ffffffffffffffffffffffffffffffffffffffff16141515156109c957600080fd5b8073ffffffffffffffffffffffffffffffffffffffff163373ffffffffffffffffffffffffffffffffffffffff16141515610a0357600080fd5b8073ffffffffffffffffffffffffffffffffffffffff16638da5cb5b6000604051602001526040518163ffffffff167c0100000000000000000000000000000000000000000000000000000000028152600401602060405180830381600087803b1515610a6f57600080fd5b6102c65a03f11515610a8057600080fd5b5050506040518051905073ffffffffffffffffffffffffffffffffffffffff163273ffffffffffffffffffffffffffffffffffffffff16141515610ac357600080fd5b610acb6118ff565b9250506001601183815481101515610adf57fe5b90600052602060002090602091828204019190066101000a81548160ff02191690831515021790555042601083815481101515610b1857fe5b906000526020600020900181905550610b2f611988565b610b396007611bf6565b50505050565b601260009054906101000a900460ff1681565b600e81815481101515610b6157fe5b90600052602060002090016000915054906101000a900473ffffffffffffffffffffffffffffffffffffffff1681565b600481565b600f81815481101515610ba557fe5b90600052602060002090016000915054906101000a900473ffffffffffffffffffffffffffffffffffffffff1681565b6000610bdf6118ff565b509050600073ffffffffffffffffffffffffffffffffffffffff168173ffffffffffffffffffffffffffffffffffffffff1614151515610c1e57600080fd5b8073ffffffffffffffffffffffffffffffffffffffff163373ffffffffffffffffffffffffffffffffffffffff16141515610c5857600080fd5b8073ffffffffffffffffffffffffffffffffffffffff16638da5cb5b6000604051602001526040518163ffffffff167c0100000000000000000000000000000000000000000000000000000000028152600401602060405180830381600087803b1515610cc457600080fd5b6102c65a03f11515610cd557600080fd5b5050506040518051905073ffffffffffffffffffffffffffffffffffffffff163273ffffffffffffffffffffffffffffffffffffffff16141515610d1857600080fd5b60018060ff16600960000160019054906101000a900460ff1660ff16141515610d4057600080fd5b610d4d8360006003611d88565b505050565b6000610d5c6118ff565b509050600073ffffffffffffffffffffffffffffffffffffffff168173ffffffffffffffffffffffffffffffffffffffff1614151515610d9b57600080fd5b8073ffffffffffffffffffffffffffffffffffffffff163373ffffffffffffffffffffffffffffffffffffffff16141515610dd557600080fd5b8073ffffffffffffffffffffffffffffffffffffffff16638da5cb5b6000604051602001526040518163ffffffff167c0100000000000000000000000000000000000000000000000000000000028152600401602060405180830381600087803b1515610e4157600080fd5b6102c65a03f11515610e5257600080fd5b5050506040518051905073ffffffffffffffffffffffffffffffffffffffff163273ffffffffffffffffffffffffffffffffffffffff16141515610e9557600080fd5b5050565b600080600b60009054906101000a900473ffffffffffffffffffffffffffffffffffffffff1673ffffffffffffffffffffffffffffffffffffffff163373ffffffffffffffffffffffffffffffffffffffff16141515610ef857600080fd5b60008060ff16600960000160019054906101000a900460ff1660ff16141515610f2057600080fd5b60016000600960000160019054906101000a900460ff169050610f4d826009611f4690919063ffffffff16565b600d60149054906101000a900460ff1660ff16604051805910610f6d5750595b9080825280602002602001820160405250600e9080519060200190610f93929190612a53565b50600d60149054906101000a900460ff1660ff16604051805910610fb45750595b908082528060200260200182016040525060109080519060200190610fda929190612add565b50600d60149054906101000a900460ff1660ff16604051805910610ffb5750595b908082528060200260200182016040525060119080519060200190611021929190612b2a565b50600094505b600d60149054906101000a900460ff1660ff168560ff16101561123457600060118660ff1681548110151561105857fe5b90600052602060002090602091828204019190066101000a81548160ff0219169083151502179055504260108660ff1681548110151561109457fe5b906000526020600020900181905550600f8560ff168154811015156110b557fe5b906000526020600020900160009054906101000a900473ffffffffffffffffffffffffffffffffffffffff16600e8660ff168154811015156110f357fe5b906000526020600020900160006101000a81548173ffffffffffffffffffffffffffffffffffffffff021916908373ffffffffffffffffffffffffffffffffffffffff160217905550600e8560ff1681548110151561114e57fe5b906000526020600020900160009054906101000a900473ffffffffffffffffffffffffffffffffffffffff1673ffffffffffffffffffffffffffffffffffffffff1663897399ae306040518263ffffffff167c0100000000000000000000000000000000000000000000000000000000028152600401808273ffffffffffffffffffffffffffffffffffffffff1673ffffffffffffffffffffffffffffffffffffffff168152602001915050600060405180830381600087803b151561121357600080fd5b6102c65a03f1151561122457600080fd5b5050508480600101955050611027565b8460ff1693505b600f805490508461ffff1610156112fa57600f80548060010182816112609190612bd0565b91600052602060002090016000600f8761ffff1681548110151561128057fe5b906000526020600020900160009054906101000a900473ffffffffffffffffffffffffffffffffffffffff16909190916101000a81548173ffffffffffffffffffffffffffffffffffffffff021916908373ffffffffffffffffffffffffffffffffffffffff16021790555050838060010194505061123b565b7f7e0d09ae7160446fde9323338cdbe3e98cc2d5197108e8a3c5e037265288335d60405160405180910390a181600960000160016101000a81548160ff021916908360ff1602179055507fe8a97ea87e4388fa22d496b95a8ed5ced6717f49790318de2b928aaf37a021d881600960000160019054906101000a900460ff16604051808360ff1660ff1681526020018260ff1660ff1681526020019250505060405180910390a16113a9612016565b5050505050565b6000809054906101000a900473ffffffffffffffffffffffffffffffffffffffff1673ffffffffffffffffffffffffffffffffffffffff163373ffffffffffffffffffffffffffffffffffffffff1614151561140b57600080fd5b6000809054906101000a900473ffffffffffffffffffffffffffffffffffffffff1673ffffffffffffffffffffffffffffffffffffffff16ff5b6000809054906101000a900473ffffffffffffffffffffffffffffffffffffffff1681565b60006114746118ff565b509050600073ffffffffffffffffffffffffffffffffffffffff168173ffffffffffffffffffffffffffffffffffffffff16141515156114b357600080fd5b8073ffffffffffffffffffffffffffffffffffffffff163373ffffffffffffffffffffffffffffffffffffffff161415156114ed57600080fd5b8073ffffffffffffffffffffffffffffffffffffffff16638da5cb5b6000604051602001526040518163ffffffff167c0100000000000000000000000000000000000000000000000000000000028152600401602060405180830381600087803b151561155957600080fd5b6102c65a03f1151561156a57600080fd5b5050506040518051905073ffffffffffffffffffffffffffffffffffffffff163273ffffffffffffffffffffffffffffffffffffffff161415156115ad57600080fd5b6002808111156115b957fe5b8260028111156115c557fe5b14156115da576115d56004612325565b611601565b611600600060028111156115ea57fe5b8360028111156115f657fe5b1460016005611d88565b5b5050565b600281565b600381565b60ff81565b600d60149054906101000a900460ff1681565b600c60009054906101000a900473ffffffffffffffffffffffffffffffffffffffff1681565b60006001151560118381548110151561166257fe5b90600052602060002090602091828204019190069054906101000a900460ff161515149050919050565b6000600160ff16600960000160019054906101000a900460ff1660ff1614806116cd5750600360ff16600960000160019054906101000a900460ff1660ff16145b806116f05750600560ff16600960000160019054906101000a900460ff1660ff16145b15156116fb57600080fd5b611704826123d9565b905061070860108281548110151561171857fe5b9060005260206000209050505061172d611988565b5050565b600781565b6000809054906101000a900473ffffffffffffffffffffffffffffffffffffffff1673ffffffffffffffffffffffffffffffffffffffff163373ffffffffffffffffffffffffffffffffffffffff1614151561179157600080fd5b600073ffffffffffffffffffffffffffffffffffffffff168173ffffffffffffffffffffffffffffffffffffffff16141515156117cd57600080fd5b8073ffffffffffffffffffffffffffffffffffffffff166000809054906101000a900473ffffffffffffffffffffffffffffffffffffffff1673ffffffffffffffffffffffffffffffffffffffff167f8be0079c531659141344cd1fd0a4f28419497f9722a3daafe3b4186f6b6457e060405160405180910390a3806000806101000a81548173ffffffffffffffffffffffffffffffffffffffff021916908373ffffffffffffffffffffffffffffffffffffffff16021790555050565b6000809054906101000a900473ffffffffffffffffffffffffffffffffffffffff1673ffffffffffffffffffffffffffffffffffffffff163373ffffffffffffffffffffffffffffffffffffffff161415156118e657600080fd5b8073ffffffffffffffffffffffffffffffffffffffff16ff5b60008061190b336123d9565b9050600e805490508111156119465760007fffffffffffffffffffffffffffffffffffffffffffffffffffffffffffffffff91509150611984565b600e8181548110151561195557fe5b906000526020600020900160009054906101000a900473ffffffffffffffffffffffffffffffffffffffff1691505b9091565b6000806000600160ff16600960000160019054906101000a900460ff1660ff1614806119cc5750600360ff16600960000160019054906101000a900460ff1660ff16145b806119ef5750600560ff16600960000160019054906101000a900460ff1660ff16145b15156119fa57600080fd5b600092505b601080549050831015611bf157610708601084815481101515611a1e57fe5b90600052602060002090015442031115611be457600e83815481101515611a4157fe5b906000526020600020900160009054906101000a900473ffffffffffffffffffffffffffffffffffffffff169150600160ff16600960000160019054906101000a900460ff1660ff161415611a995760009050611af4565b600360ff16600960000160019054906101000a900460ff1660ff161415611ac35760029050611af3565b600560ff16600960000160019054906101000a900460ff1660ff161415611aed5760049050611af2565b600080fd5b5b5b600b60009054906101000a900473ffffffffffffffffffffffffffffffffffffffff1673ffffffffffffffffffffffffffffffffffffffff16635ef1777683836040518363ffffffff167c0100000000000000000000000000000000000000000000000000000000028152600401808373ffffffffffffffffffffffffffffffffffffffff1673ffffffffffffffffffffffffffffffffffffffff168152602001826004811115611ba157fe5b60ff16815260200192505050600060405180830381600087803b1515611bc657600080fd5b6102c65a03f11515611bd757600080fd5b505050611be38361249b565b5b82806001019350506119ff565b505050565b600080600090505b601180549050811015611c595760011515601182815481101515611c1e57fe5b90600052602060002090602091828204019190069054906101000a900460ff161515141515611c4c57611d83565b8080600101915050611bfe565b826000600960000160019054906101000a900460ff169050611c85826009611f4690919063ffffffff16565b600093505b601080549050841015611cfd576000601185815481101515611ca857fe5b90600052602060002090602091828204019190066101000a81548160ff02191690831515021790555042601085815481101515611ce157fe5b9060005260206000209001819055508380600101945050611c8a565b81600960000160016101000a81548160ff021916908360ff1602179055507fe8a97ea87e4388fa22d496b95a8ed5ced6717f49790318de2b928aaf37a021d881600960000160019054906101000a900460ff16604051808360ff1660ff1681526020018260ff1660ff1681526020019250505060405180910390a1611d80612016565b50505b505050565b600080611d936118ff565b91509150600073ffffffffffffffffffffffffffffffffffffffff168273ffffffffffffffffffffffffffffffffffffffff1614151515611dd357600080fd5b600015158515151415611ed457611de98161249b565b600b60009054906101000a900473ffffffffffffffffffffffffffffffffffffffff1673ffffffffffffffffffffffffffffffffffffffff16635ef1777683866040518363ffffffff167c0100000000000000000000000000000000000000000000000000000000028152600401808373ffffffffffffffffffffffffffffffffffffffff1673ffffffffffffffffffffffffffffffffffffffff168152602001826004811115611e9657fe5b60ff16815260200192505050600060405180830381600087803b1515611ebb57600080fd5b6102c65a03f11515611ecc57600080fd5b505050611f3f565b6001601182815481101515611ee557fe5b90600052602060002090602091828204019190066101000a81548160ff02191690831515021790555042601082815481101515611f1e57fe5b906000526020600020900181905550611f35611988565b611f3e83611bf6565b5b5050505050565b600080600060ff8560000160019054906101000a900460ff1660ff1614151515611f6c57fe5b600092508460010160008660000160019054906101000a900460ff1660ff1660ff1681526020019081526020016000209150600090505b8180549050811015611ffc578360ff168282815481101515611fc157fe5b90600052602060002090602091828204019190069054906101000a900460ff1660ff161415611fef57600192505b8080600101915050611fa3565b6001151583151514151561200f57600080fd5b5050505050565b600260ff16612023610867565b60ff161415612065577f5f64b01e798e22b7b006309d50c085491c227a74e9cf11a922528b0d9a414de460405160405180910390a16120606127e2565b612323565b600360ff16612072610867565b60ff1614156120ac577f2d9c6af01e1c3857ef5720b6226a3b900b0db1a5a9430c53d8a35b4fccf2015560405160405180910390a1612322565b600460ff166120b9610867565b60ff1614156120fb577f75be0ccc76f667c80f1c9ab66fafe78bd732b900403eb3f0da135c085955deca60405160405180910390a16120f66127e2565b612321565b600560ff16612108610867565b60ff161415612142577f51273f7efcba23797f509c81f07b426c6b9cdbee92a6a40389a405d0152178c960405160405180910390a1612320565b600660ff1661214f610867565b60ff161415612232577ff8d8e42e26bfacf74ecaff47cd43fa79d51c74d3a979d58521d12f369ad2bf7b6001604051808215151515815260200191505060405180910390a1600b60009054906101000a900473ffffffffffffffffffffffffffffffffffffffff1673ffffffffffffffffffffffffffffffffffffffff1663171317516040518163ffffffff167c0100000000000000000000000000000000000000000000000000000000028152600401600060405180830381600087803b151561221957600080fd5b6102c65a03f1151561222a57600080fd5b50505061231f565b600760ff1661223f610867565b60ff16141561231e577ff8d8e42e26bfacf74ecaff47cd43fa79d51c74d3a979d58521d12f369ad2bf7b6000604051808215151515815260200191505060405180910390a1600b60009054906101000a900473ffffffffffffffffffffffffffffffffffffffff1673ffffffffffffffffffffffffffffffffffffffff1663171317516040518163ffffffff167c0100000000000000000000000000000000000000000000000000000000028152600401600060405180830381600087803b151561230957600080fd5b6102c65a03f1151561231a57600080fd5b5050505b5b5b5b5b5b565b806000600960000160019054906101000a900460ff169050612351826009611f4690919063ffffffff16565b81600960000160016101000a81548160ff021916908360ff1602179055507fe8a97ea87e4388fa22d496b95a8ed5ced6717f49790318de2b928aaf37a021d881600960000160019054906101000a900460ff16604051808360ff1660ff1681526020018260ff1660ff1681526020019250505060405180910390a16123d4612016565b505050565b600080600090505b600e8054905081101561247157600e818154811015156123fd57fe5b906000526020600020900160009054906101000a900473ffffffffffffffffffffffffffffffffffffffff1673ffffffffffffffffffffffffffffffffffffffff163373ffffffffffffffffffffffffffffffffffffffff16141561246457809150612495565b80806001019150506123e1565b7fffffffffffffffffffffffffffffffffffffffffffffffffffffffffffffffff91505b50919050565b6000600360056124b7828260096128349092919063ffffffff16565b5b6000600f8054905014156124d3576124ce6128d6565b6127dc565b600f6001600f80549050038154811015156124ea57fe5b906000526020600020900160009054906101000a900473ffffffffffffffffffffffffffffffffffffffff1692506001600f8054905003600f8161252e9190612bfc565b508273ffffffffffffffffffffffffffffffffffffffff1663ae897c556000604051602001526040518163ffffffff167c0100000000000000000000000000000000000000000000000000000000028152600401602060405180830381600087803b151561259b57600080fd5b6102c65a03f115156125ac57600080fd5b5050506040518051905060ff168373ffffffffffffffffffffffffffffffffffffffff16630c3f6acf6000604051602001526040518163ffffffff167c0100000000000000000000000000000000000000000000000000000000028152600401602060405180830381600087803b151561262557600080fd5b6102c65a03f1151561263657600080fd5b5050506040518051905060ff1614151561264f576124b8565b600060118581548110151561266057fe5b90600052602060002090602091828204019190066101000a81548160ff0219169083151502179055504260108581548110151561269957fe5b90600052602060002090018190555082600e858154811015156126b857fe5b906000526020600020900160006101000a81548173ffffffffffffffffffffffffffffffffffffffff021916908373ffffffffffffffffffffffffffffffffffffffff1602179055508273ffffffffffffffffffffffffffffffffffffffff1663897399ae306040518263ffffffff167c0100000000000000000000000000000000000000000000000000000000028152600401808273ffffffffffffffffffffffffffffffffffffffff1673ffffffffffffffffffffffffffffffffffffffff168152602001915050600060405180830381600087803b151561279b57600080fd5b6102c65a03f115156127ac57600080fd5b5050507f7e0d09ae7160446fde9323338cdbe3e98cc2d5197108e8a3c5e037265288335d60405160405180910390a15b50505050565b6000600f816127f19190612bfc565b506000600e816128019190612bfc565b5060006013816128119190612c28565b5060006011816128219190612c54565b5060006010816128319190612c8e565b50565b600061283e612cba565b600080925060408051908101604052808660ff1660ff1681526020018560ff1660ff168152509150600090505b60028110156128bb578560000160019054906101000a900460ff1660ff16828260028110151561289757fe5b602002015160ff1614156128ae57600192506128bb565b808060010191505061286b565b600115158315151415156128ce57600080fd5b505050505050565b6000600160ff16600960000160019054906101000a900460ff1660ff1614806129175750600360ff16600960000160019054906101000a900460ff1660ff16145b8061293a5750600560ff16600960000160019054906101000a900460ff1660ff16145b151561294557600080fd5b600090505b600e80549050811015612a1557600e8181548110151561296657fe5b906000526020600020900160009054906101000a900473ffffffffffffffffffffffffffffffffffffffff1673ffffffffffffffffffffffffffffffffffffffff1663b07c74756040518163ffffffff167c0100000000000000000000000000000000000000000000000000000000028152600401600060405180830381600087803b15156129f457600080fd5b6102c65a03f11515612a0557600080fd5b505050808060010191505061294a565b600560ff16600960000160019054906101000a900460ff1660ff161415612a4557612a406006612325565b612a50565b612a4f6002612325565b5b50565b828054828255906000526020600020908101928215612acc579160200282015b82811115612acb5782518260006101000a81548173ffffffffffffffffffffffffffffffffffffffff021916908373ffffffffffffffffffffffffffffffffffffffff16021790555091602001919060010190612a73565b5b509050612ad99190612ce4565b5090565b828054828255906000526020600020908101928215612b19579160200282015b82811115612b18578251825591602001919060010190612afd565b5b509050612b269190612d27565b5090565b82805482825590600052602060002090601f01602090048101928215612bbf5791602002820160005b83821115612b9057835183826101000a81548160ff0219169083151502179055509260200192600101602081600001049283019260010302612b53565b8015612bbd5782816101000a81549060ff0219169055600101602081600001049283019260010302612b90565b505b509050612bcc9190612d4c565b5090565b815481835581811511612bf757818360005260206000209182019101612bf69190612d27565b5b505050565b815481835581811511612c2357818360005260206000209182019101612c229190612d27565b5b505050565b815481835581811511612c4f57818360005260206000209182019101612c4e9190612d7c565b5b505050565b815481835581811511612c8957601f016020900481601f01602090048360005260206000209182019101612c889190612d27565b5b505050565b815481835581811511612cb557818360005260206000209182019101612cb49190612d27565b5b505050565b60408051908101604052806002905b600060ff16815260200190600190039081612cc95790505090565b612d2491905b80821115612d2057600081816101000a81549073ffffffffffffffffffffffffffffffffffffffff021916905550600101612cea565b5090565b90565b612d4991905b80821115612d45576000816000905550600101612d2d565b5090565b90565b612d7991905b80821115612d7557600081816101000a81549060ff021916905550600101612d52565b5090565b90565b612da591905b80821115612da15760008181612d989190612da8565b50600101612d82565b5090565b90565b50805460018160011615610100020316600290046000825580601f10612dce5750612ded565b601f016020900490600052602060002090810190612dec9190612d27565b5b50565b600060096001019050602060405190810160405280600160ff1660ff168152508160008060ff1660ff168152602001908152602001600020906001612e36929190613104565b506040805190810160405280600260ff1660ff168152602001600360ff1660ff16815250816000600160ff1660ff168152602001908152602001600020906002612e819291906131ab565b50606060405190810160405280600460ff1660ff168152602001600560ff1660ff168152602001600260ff1660ff16815250816000600360ff1660ff168152602001908152602001600020906003612eda929190613252565b506040805190810160405280600760ff1660ff168152602001600660ff1660ff16815250816000600560ff1660ff168152602001908152602001600020906002612f259291906131ab565b50612f2e612f50565b6000600960000160016101000a81548160ff021916908360ff16021790555050565b6040805190810160405280601181526020017f5f696e697453746174654d616368696e65000000000000000000000000000000815250600015156008826040518082805190602001908083835b602083101515612fc25780518252602082019150602081019050602083039250612f9d565b6001836020036101000a038019825116818451168082178552505050505050905001915050908152602001604051809103902060009054906101000a900460ff16151514151561301157600080fd5b61301b60096130a2565b60016008826040518082805190602001908083835b6020831015156130555780518252602082019150602081019050602083039250613030565b6001836020036101000a038019825116818451168082178552505050505050905001915050908152602001604051809103902060006101000a81548160ff02191690831515021790555050565b600015158160000160009054906101000a900460ff1615151415156130c657600080fd5b60018160000160016101000a81548160ff021916908360ff16021790555060018160000160006101000a81548160ff02191690831515021790555050565b82805482825590600052602060002090601f0160209004810192821561319a5791602002820160005b8382111561316b57835183826101000a81548160ff021916908360ff160217905550926020019260010160208160000104928301926001030261312d565b80156131985782816101000a81549060ff021916905560010160208160000104928301926001030261316b565b505b5090506131a791906132f9565b5090565b82805482825590600052602060002090601f016020900481019282156132415791602002820160005b8382111561321257835183826101000a81548160ff021916908360ff16021790555092602001926001016020816000010492830192600103026131d4565b801561323f5782816101000a81549060ff0219169055600101602081600001049283019260010302613212565b505b50905061324e91906132f9565b5090565b82805482825590600052602060002090601f016020900481019282156132e85791602002820160005b838211156132b957835183826101000a81548160ff021916908360ff160217905550926020019260010160208160000104928301926001030261327b565b80156132e65782816101000a81549060ff02191690556001016020816000010492830192600103026132b9565b505b5090506132f591906132f9565b5090565b61332691905b8082111561332257600081816101000a81549060ff0219169055506001016132ff565b5090565b905600a165627a7a723058206aa91fcd3a3dcdb266f65f9d79eeeffc35ad7129ed5fc35f2d5a541f7fd0ffde0029a165627a7a7230582037e707e4e1d1205b3104bee29f67f0144af09aa790bdf7d288f295ac63851cea0029",
  "source": "pragma solidity ^0.4.18;\n\nimport 'zeppelin-solidity/contracts/ownership/Ownable.sol';\nimport '../../jobs/CognitiveJob.sol';\nimport '../../entities/IDataEntity.sol';\nimport '../../entities/IDataset.sol';\nimport '../../entities/IKernel.sol';\nimport '../../nodes/IWorkerNode.sol';\nimport '../IPandora.sol';\n\ncontract CognitiveJobFactory is Ownable {\n    function CognitiveJobFactory() public { }\n\n    function create(\n        IKernel _kernel,\n        IDataset _dataset,\n        IWorkerNode[] _workersPool\n    )\n    onlyOwner\n    external\n    returns (CognitiveJob o_cognitiveJob) {\n        // Creating job\n        o_cognitiveJob = new CognitiveJob(IPandora(owner), _kernel, _dataset, _workersPool);\n\n        // Checking that it was created correctly\n        assert(o_cognitiveJob != CognitiveJob(0));\n\n        // Transferring ownership to the main Pandora contract (which owns this factory)\n        o_cognitiveJob.transferOwnership(owner);\n    }\n}\n",
  "sourcePath": "/Users/orlovsky/Repositories/pandora/pyrrha-consensus/contracts/pandora/factories/CognitiveJobFactory.sol",
  "compiler": {
    "name": "solc",
    "version": "0.4.18+commit.9cf6e910.Emscripten.clang"
  },
  "schemaVersion": "1.0.1",
  "updatedAt": "2017-12-19T15:26:54.604Z"
}