{
  "contractName": "DataEntity",
  "abi": [
    {
      "constant": false,
      "inputs": [],
      "name": "withdrawBalance",
      "outputs": [],
      "payable": false,
      "stateMutability": "nonpayable",
      "type": "function"
    },
    {
      "constant": false,
      "inputs": [
        {
          "name": "_newPrice",
          "type": "uint256"
        }
      ],
      "name": "updatePrice",
      "outputs": [],
      "payable": false,
      "stateMutability": "nonpayable",
      "type": "function"
    },
    {
      "constant": true,
      "inputs": [],
      "name": "owner",
      "outputs": [
        {
          "name": "",
          "type": "address"
        }
      ],
      "payable": false,
      "stateMutability": "view",
      "type": "function"
    },
    {
      "constant": true,
      "inputs": [],
      "name": "currentPrice",
      "outputs": [
        {
          "name": "",
          "type": "uint256"
        }
      ],
      "payable": false,
      "stateMutability": "view",
      "type": "function"
    },
    {
      "constant": true,
      "inputs": [],
      "name": "dataDim",
      "outputs": [
        {
          "name": "",
          "type": "uint256"
        }
      ],
      "payable": false,
      "stateMutability": "view",
      "type": "function"
    },
    {
      "constant": true,
      "inputs": [],
      "name": "ipfsAddress",
      "outputs": [
        {
          "name": "",
          "type": "bytes"
        }
      ],
      "payable": false,
      "stateMutability": "view",
      "type": "function"
    },
    {
      "constant": false,
      "inputs": [
        {
          "name": "newOwner",
          "type": "address"
        }
      ],
      "name": "transferOwnership",
      "outputs": [],
      "payable": false,
      "stateMutability": "nonpayable",
      "type": "function"
    },
    {
      "inputs": [
        {
          "name": "_ipfsAddress",
          "type": "bytes"
        },
        {
          "name": "_dataDim",
          "type": "uint256"
        },
        {
          "name": "_initialPrice",
          "type": "uint256"
        }
      ],
      "payable": false,
      "stateMutability": "nonpayable",
      "type": "constructor"
    },
    {
      "anonymous": false,
      "inputs": [
        {
          "indexed": false,
          "name": "oldPrice",
          "type": "uint256"
        },
        {
          "indexed": false,
          "name": "newPrice",
          "type": "uint256"
        }
      ],
      "name": "PriceUpdated",
      "type": "event"
    },
    {
      "anonymous": false,
      "inputs": [
        {
          "indexed": true,
          "name": "previousOwner",
          "type": "address"
        },
        {
          "indexed": true,
          "name": "newOwner",
          "type": "address"
        }
      ],
      "name": "OwnershipTransferred",
      "type": "event"
    }
  ],
  "bytecode": "0x6060604052341561000f57600080fd5b60405161076038038061076083398101604052808051820191906020018051906020019091908051906020019091905050336000806101000a81548173ffffffffffffffffffffffffffffffffffffffff021916908373ffffffffffffffffffffffffffffffffffffffff16021790555081600581905550826004908051906020019061009d9291906100ad565b5080600681905550505050610152565b828054600181600116156101000203166002900490600052602060002090601f016020900481019282601f106100ee57805160ff191683800117855561011c565b8280016001018555821561011c579182015b8281111561011b578251825591602001919060010190610100565b5b509050610129919061012d565b5090565b61014f91905b8082111561014b576000816000905550600101610133565b5090565b90565b6105ff806101616000396000f300606060405260043610610083576000357c0100000000000000000000000000000000000000000000000000000000900463ffffffff1680635fd8c710146100885780638d6cc56d1461009d5780638da5cb5b146100c05780639d1b464a14610115578063b1f8d9ba1461013e578063e1b40a7614610167578063f2fde38b146101f5575b600080fd5b341561009357600080fd5b61009b61022e565b005b34156100a857600080fd5b6100be6004808035906020019091905050610303565b005b34156100cb57600080fd5b6100d36103af565b604051808273ffffffffffffffffffffffffffffffffffffffff1673ffffffffffffffffffffffffffffffffffffffff16815260200191505060405180910390f35b341561012057600080fd5b6101286103d4565b6040518082815260200191505060405180910390f35b341561014957600080fd5b6101516103da565b6040518082815260200191505060405180910390f35b341561017257600080fd5b61017a6103e0565b6040518080602001828103825283818151815260200191508051906020019080838360005b838110156101ba57808201518184015260208101905061019f565b50505050905090810190601f1680156101e75780820380516001836020036101000a031916815260200191505b509250505060405180910390f35b341561020057600080fd5b61022c600480803573ffffffffffffffffffffffffffffffffffffffff1690602001909190505061047e565b005b6000809054906101000a900473ffffffffffffffffffffffffffffffffffffffff1673ffffffffffffffffffffffffffffffffffffffff163373ffffffffffffffffffffffffffffffffffffffff1614151561028957600080fd5b6000809054906101000a900473ffffffffffffffffffffffffffffffffffffffff1673ffffffffffffffffffffffffffffffffffffffff166108fc3073ffffffffffffffffffffffffffffffffffffffff16319081150290604051600060405180830381858888f19350505050151561030157600080fd5b565b60008060009054906101000a900473ffffffffffffffffffffffffffffffffffffffff1673ffffffffffffffffffffffffffffffffffffffff163373ffffffffffffffffffffffffffffffffffffffff1614151561036057600080fd5b6006549050816006819055507f945c1c4e99aa89f648fbfe3df471b916f719e16d960fcec0737d4d56bd6968388183604051808381526020018281526020019250505060405180910390a15050565b6000809054906101000a900473ffffffffffffffffffffffffffffffffffffffff1681565b60065481565b60055481565b60048054600181600116156101000203166002900480601f0160208091040260200160405190810160405280929190818152602001828054600181600116156101000203166002900480156104765780601f1061044b57610100808354040283529160200191610476565b820191906000526020600020905b81548152906001019060200180831161045957829003601f168201915b505050505081565b6000809054906101000a900473ffffffffffffffffffffffffffffffffffffffff1673ffffffffffffffffffffffffffffffffffffffff163373ffffffffffffffffffffffffffffffffffffffff161415156104d957600080fd5b600073ffffffffffffffffffffffffffffffffffffffff168173ffffffffffffffffffffffffffffffffffffffff161415151561051557600080fd5b8073ffffffffffffffffffffffffffffffffffffffff166000809054906101000a900473ffffffffffffffffffffffffffffffffffffffff1673ffffffffffffffffffffffffffffffffffffffff167f8be0079c531659141344cd1fd0a4f28419497f9722a3daafe3b4186f6b6457e060405160405180910390a3806000806101000a81548173ffffffffffffffffffffffffffffffffffffffff021916908373ffffffffffffffffffffffffffffffffffffffff160217905550505600a165627a7a723058200d81b853efc7594b62d0f7fabf41b61761a3331265c86e8b5b26f8fc2320732b0029",
  "source": "pragma solidity ^0.4.18;\n\nimport './IDataEntity.sol';\n\n/**\n * @title DataEntity Contract (parent for Kernel and Dataset contracts)\n * @author \"Dr Maxim Orlovsky\" <orlovsky@pandora.foundation>\n *\n * @dev Root contract for data entities and their workflows. For more details please refer to the\n * [Technical specification](https://github.com/pandoraboxchain/techspecs/wiki/Creating-data-entities)\n */\n\ncontract DataEntity is IDataEntity {\n\n    /// @dev Address of IPFS metadata file in JSON format that contains all necessary information about data entity,\n    /// together with references on other data files stored in IPFS (models, big data sets and data chunks etc)\n    bytes public ipfsAddress;\n\n    /// @dev Data dimension: sample data vector length for datasets and input layer vector length for AI kernel.\n    /// Needs to be present in blockchain storage since used by the Pandora contract for checking during creation of\n    /// cognitive job contract (dataset and kernel dimensions must match).\n    uint256 public dataDim;\n\n    /// @dev Current price (in PAN tokens) for the single use of the data entity\n    uint256 public currentPrice;\n\n    /// @dev Fired by `updatePrice` function\n    event PriceUpdated(uint256 oldPrice, uint256 newPrice);\n\n\n    function DataEntity (\n        bytes _ipfsAddress,\n        uint256 _dataDim,\n        uint256 _initialPrice\n    )\n    public {\n        dataDim = _dataDim;\n        ipfsAddress = _ipfsAddress;\n        currentPrice = _initialPrice;\n    }\n\n    function updatePrice (\n        uint256 _newPrice\n    ) external\n        onlyOwner\n    {\n        uint256 oldPrice = currentPrice;\n        currentPrice = _newPrice;\n\n        PriceUpdated(oldPrice, _newPrice);\n    }\n\n    /// @notice Withdraws full balance to the owner account. Can be called only by the owner of the contract.\n    function withdrawBalance(\n        // No arguments\n    ) external\n        onlyOwner // Can be called only by the owner\n    {\n        owner.transfer(this.balance);\n    }\n}\n",
  "sourcePath": "/Users/orlovsky/Repositories/pandora/pyrrha-consensus/contracts/entities/DataEntity.sol",
  "compiler": {
    "name": "solc",
    "version": "0.4.18+commit.9cf6e910.Emscripten.clang"
  },
  "schemaVersion": "1.0.1",
  "updatedAt": "2017-12-17T07:58:45.694Z"
}