{
  "contractName": "PandoraMarket",
  "abi": [
    {
      "constant": true,
      "inputs": [
        {
          "name": "",
          "type": "uint256"
        }
      ],
      "name": "datasets",
      "outputs": [
        {
          "name": "",
          "type": "address"
        }
      ],
      "payable": false,
      "stateMutability": "view",
      "type": "function"
    },
    {
      "constant": false,
      "inputs": [
        {
          "name": "_kernel",
          "type": "address"
        }
      ],
      "name": "addKernel",
      "outputs": [
        {
          "name": "",
          "type": "bool"
        }
      ],
      "payable": false,
      "stateMutability": "nonpayable",
      "type": "function"
    },
    {
      "constant": false,
      "inputs": [
        {
          "name": "_dataset",
          "type": "address"
        }
      ],
      "name": "addDataset",
      "outputs": [
        {
          "name": "",
          "type": "bool"
        }
      ],
      "payable": false,
      "stateMutability": "nonpayable",
      "type": "function"
    },
    {
      "constant": true,
      "inputs": [
        {
          "name": "",
          "type": "address"
        }
      ],
      "name": "kernelMap",
      "outputs": [
        {
          "name": "",
          "type": "bool"
        }
      ],
      "payable": false,
      "stateMutability": "view",
      "type": "function"
    },
    {
      "constant": true,
      "inputs": [
        {
          "name": "",
          "type": "uint256"
        }
      ],
      "name": "kernels",
      "outputs": [
        {
          "name": "",
          "type": "address"
        }
      ],
      "payable": false,
      "stateMutability": "view",
      "type": "function"
    },
    {
      "constant": true,
      "inputs": [
        {
          "name": "",
          "type": "address"
        }
      ],
      "name": "datasetMap",
      "outputs": [
        {
          "name": "",
          "type": "bool"
        }
      ],
      "payable": false,
      "stateMutability": "view",
      "type": "function"
    },
    {
      "inputs": [],
      "payable": false,
      "stateMutability": "nonpayable",
      "type": "constructor"
    },
    {
      "anonymous": false,
      "inputs": [
        {
          "indexed": false,
          "name": "kernel",
          "type": "address"
        }
      ],
      "name": "KernelAdded",
      "type": "event"
    },
    {
      "anonymous": false,
      "inputs": [
        {
          "indexed": false,
          "name": "dataset",
          "type": "address"
        }
      ],
      "name": "DatasetAdded",
      "type": "event"
    }
  ],
  "bytecode": "0x6060604052341561000f57600080fd5b6107068061001e6000396000f300606060405260043610610078576000357c0100000000000000000000000000000000000000000000000000000000900463ffffffff1680631cff85e11461007d578063433e0358146100e0578063a14bcc0e14610131578063caa27f8214610182578063d4f6ab79146101d3578063e691aec414610236575b600080fd5b341561008857600080fd5b61009e6004808035906020019091905050610287565b604051808273ffffffffffffffffffffffffffffffffffffffff1673ffffffffffffffffffffffffffffffffffffffff16815260200191505060405180910390f35b34156100eb57600080fd5b610117600480803573ffffffffffffffffffffffffffffffffffffffff169060200190919050506102c6565b604051808215151515815260200191505060405180910390f35b341561013c57600080fd5b610168600480803573ffffffffffffffffffffffffffffffffffffffff16906020019091905050610452565b604051808215151515815260200191505060405180910390f35b341561018d57600080fd5b6101b9600480803573ffffffffffffffffffffffffffffffffffffffff169060200190919050506105de565b604051808215151515815260200191505060405180910390f35b34156101de57600080fd5b6101f460048080359060200190919050506105fe565b604051808273ffffffffffffffffffffffffffffffffffffffff1673ffffffffffffffffffffffffffffffffffffffff16815260200191505060405180910390f35b341561024157600080fd5b61026d600480803573ffffffffffffffffffffffffffffffffffffffff1690602001909190505061063d565b604051808215151515815260200191505060405180910390f35b60018181548110151561029657fe5b90600052602060002090016000915054906101000a900473ffffffffffffffffffffffffffffffffffffffff1681565b600060011515600260008473ffffffffffffffffffffffffffffffffffffffff1673ffffffffffffffffffffffffffffffffffffffff16815260200190815260200160002060009054906101000a900460ff161515141561032a576000905061044d565b6000600260008473ffffffffffffffffffffffffffffffffffffffff1673ffffffffffffffffffffffffffffffffffffffff16815260200190815260200160002060006101000a81548160ff02191690831515021790555060008054806001018281610396919061065d565b9160005260206000209001600084909190916101000a81548173ffffffffffffffffffffffffffffffffffffffff021916908373ffffffffffffffffffffffffffffffffffffffff160217905550507fcf31165d5ed409961af0e533d1df52e392ca2a050a9e73c406bb1ccb683cc5ba82604051808273ffffffffffffffffffffffffffffffffffffffff1673ffffffffffffffffffffffffffffffffffffffff16815260200191505060405180910390a1600190505b919050565b600060011515600360008473ffffffffffffffffffffffffffffffffffffffff1673ffffffffffffffffffffffffffffffffffffffff16815260200190815260200160002060009054906101000a900460ff16151514156104b657600090506105d9565b6000600360008473ffffffffffffffffffffffffffffffffffffffff1673ffffffffffffffffffffffffffffffffffffffff16815260200190815260200160002060006101000a81548160ff021916908315150217905550600180548060010182816105229190610689565b9160005260206000209001600084909190916101000a81548173ffffffffffffffffffffffffffffffffffffffff021916908373ffffffffffffffffffffffffffffffffffffffff160217905550507f0c4c9279435b64167addbdd51e76b8ef0cb6dd29fd131c486b1a276b4c6ad2b282604051808273ffffffffffffffffffffffffffffffffffffffff1673ffffffffffffffffffffffffffffffffffffffff16815260200191505060405180910390a1600190505b919050565b60026020528060005260406000206000915054906101000a900460ff1681565b60008181548110151561060d57fe5b90600052602060002090016000915054906101000a900473ffffffffffffffffffffffffffffffffffffffff1681565b60036020528060005260406000206000915054906101000a900460ff1681565b8154818355818115116106845781836000526020600020918201910161068391906106b5565b5b505050565b8154818355818115116106b0578183600052602060002091820191016106af91906106b5565b5b505050565b6106d791905b808211156106d35760008160009055506001016106bb565b5090565b905600a165627a7a7230582053305c08e5b3bc676d89e1d6866c867cedba1f043a309e1fbf5dfb14fc6798dc0029",
  "source": "pragma solidity ^0.4.18;\n\nimport \"../entities/IKernel.sol\";\nimport \"../entities/IDataset.sol\";\n\ncontract PandoraMarket {\n    IKernel[] public kernels;\n    IDataset[] public datasets;\n    mapping(address => bool) public kernelMap;\n    mapping(address => bool) public datasetMap;\n\n    event KernelAdded(IKernel kernel);\n    event DatasetAdded(IDataset dataset);\n\n    function PandoraMarket() {\n    }\n\n    function addKernel(IKernel _kernel)\n    external\n    returns (bool) {\n        if (kernelMap[address(_kernel)] == true) {\n            return false;\n        }\n        kernelMap[address(_kernel)] = false;\n        kernels.push(_kernel);\n        KernelAdded(_kernel);\n        return true;\n    }\n\n    function addDataset(IDataset _dataset)\n    external\n    returns (bool) {\n        if (datasetMap[address(_dataset)] == true) {\n            return false;\n        }\n        datasetMap[address(_dataset)] = false;\n        datasets.push(_dataset);\n        DatasetAdded(_dataset);\n        return true;\n    }\n}\n",
  "sourcePath": "/Users/orlovsky/Repositories/pandora/pyrrha-consensus/contracts/dmarket/PandoraMarket.sol",
  "compiler": {
    "name": "solc",
    "version": "0.4.18+commit.9cf6e910.Emscripten.clang"
  },
  "schemaVersion": "1.0.1",
  "updatedAt": "2017-12-19T15:26:55.395Z"
}