{
  "contractName": "WorkerNode",
  "abi": [
    {
      "constant": false,
      "inputs": [],
      "name": "processToCognition",
      "outputs": [],
      "payable": false,
      "stateMutability": "nonpayable",
      "type": "function"
    },
    {
      "constant": true,
      "inputs": [],
      "name": "currentState",
      "outputs": [
        {
          "name": "",
          "type": "uint8"
        }
      ],
      "payable": false,
      "stateMutability": "view",
      "type": "function"
    },
    {
      "constant": true,
      "inputs": [],
      "name": "pandora",
      "outputs": [
        {
          "name": "",
          "type": "address"
        }
      ],
      "payable": false,
      "stateMutability": "view",
      "type": "function"
    },
    {
      "constant": false,
      "inputs": [],
      "name": "declineValidData",
      "outputs": [],
      "payable": false,
      "stateMutability": "nonpayable",
      "type": "function"
    },
    {
      "constant": true,
      "inputs": [],
      "name": "Uninitialized",
      "outputs": [
        {
          "name": "",
          "type": "uint8"
        }
      ],
      "payable": false,
      "stateMutability": "view",
      "type": "function"
    },
    {
      "constant": true,
      "inputs": [],
      "name": "Computing",
      "outputs": [
        {
          "name": "",
          "type": "uint8"
        }
      ],
      "payable": false,
      "stateMutability": "view",
      "type": "function"
    },
    {
      "constant": true,
      "inputs": [],
      "name": "ReadyForComputing",
      "outputs": [
        {
          "name": "",
          "type": "uint8"
        }
      ],
      "payable": false,
      "stateMutability": "view",
      "type": "function"
    },
    {
      "constant": false,
      "inputs": [],
      "name": "reportInvalidData",
      "outputs": [],
      "payable": false,
      "stateMutability": "nonpayable",
      "type": "function"
    },
    {
      "constant": false,
      "inputs": [
        {
          "name": "_ipfsAddress",
          "type": "bytes"
        }
      ],
      "name": "provideResults",
      "outputs": [],
      "payable": false,
      "stateMutability": "nonpayable",
      "type": "function"
    },
    {
      "constant": false,
      "inputs": [],
      "name": "maxPenalty",
      "outputs": [],
      "payable": false,
      "stateMutability": "nonpayable",
      "type": "function"
    },
    {
      "constant": false,
      "inputs": [],
      "name": "resetReputation",
      "outputs": [],
      "payable": false,
      "stateMutability": "nonpayable",
      "type": "function"
    },
    {
      "constant": false,
      "inputs": [],
      "name": "acceptValidData",
      "outputs": [],
      "payable": false,
      "stateMutability": "nonpayable",
      "type": "function"
    },
    {
      "constant": false,
      "inputs": [],
      "name": "withdrawBalance",
      "outputs": [],
      "payable": false,
      "stateMutability": "nonpayable",
      "type": "function"
    },
    {
      "constant": true,
      "inputs": [],
      "name": "ValidatingData",
      "outputs": [
        {
          "name": "",
          "type": "uint8"
        }
      ],
      "payable": false,
      "stateMutability": "view",
      "type": "function"
    },
    {
      "constant": false,
      "inputs": [],
      "name": "alive",
      "outputs": [],
      "payable": false,
      "stateMutability": "nonpayable",
      "type": "function"
    },
    {
      "constant": false,
      "inputs": [],
      "name": "processToDataValidation",
      "outputs": [],
      "payable": false,
      "stateMutability": "nonpayable",
      "type": "function"
    },
    {
      "constant": true,
      "inputs": [],
      "name": "Offline",
      "outputs": [
        {
          "name": "",
          "type": "uint8"
        }
      ],
      "payable": false,
      "stateMutability": "view",
      "type": "function"
    },
    {
      "constant": false,
      "inputs": [],
      "name": "destroy",
      "outputs": [],
      "payable": false,
      "stateMutability": "nonpayable",
      "type": "function"
    },
    {
      "constant": false,
      "inputs": [
        {
          "name": "_job",
          "type": "address"
        }
      ],
      "name": "assignJob",
      "outputs": [],
      "payable": false,
      "stateMutability": "nonpayable",
      "type": "function"
    },
    {
      "constant": true,
      "inputs": [],
      "name": "owner",
      "outputs": [
        {
          "name": "",
          "type": "address"
        }
      ],
      "payable": false,
      "stateMutability": "view",
      "type": "function"
    },
    {
      "constant": true,
      "inputs": [],
      "name": "activeJob",
      "outputs": [
        {
          "name": "",
          "type": "address"
        }
      ],
      "payable": false,
      "stateMutability": "view",
      "type": "function"
    },
    {
      "constant": true,
      "inputs": [],
      "name": "UnderPenalty",
      "outputs": [
        {
          "name": "",
          "type": "uint8"
        }
      ],
      "payable": false,
      "stateMutability": "view",
      "type": "function"
    },
    {
      "constant": false,
      "inputs": [],
      "name": "deathPenalty",
      "outputs": [],
      "payable": false,
      "stateMutability": "nonpayable",
      "type": "function"
    },
    {
      "constant": false,
      "inputs": [],
      "name": "decreaseReputation",
      "outputs": [],
      "payable": false,
      "stateMutability": "nonpayable",
      "type": "function"
    },
    {
      "constant": true,
      "inputs": [],
      "name": "Idle",
      "outputs": [
        {
          "name": "",
          "type": "uint8"
        }
      ],
      "payable": false,
      "stateMutability": "view",
      "type": "function"
    },
    {
      "constant": false,
      "inputs": [],
      "name": "cancelJob",
      "outputs": [],
      "payable": false,
      "stateMutability": "nonpayable",
      "type": "function"
    },
    {
      "constant": false,
      "inputs": [],
      "name": "declineAssignment",
      "outputs": [],
      "payable": false,
      "stateMutability": "nonpayable",
      "type": "function"
    },
    {
      "constant": true,
      "inputs": [],
      "name": "reputation",
      "outputs": [
        {
          "name": "",
          "type": "uint256"
        }
      ],
      "payable": false,
      "stateMutability": "view",
      "type": "function"
    },
    {
      "constant": true,
      "inputs": [],
      "name": "ReadyForDataValidation",
      "outputs": [
        {
          "name": "",
          "type": "uint8"
        }
      ],
      "payable": false,
      "stateMutability": "view",
      "type": "function"
    },
    {
      "constant": true,
      "inputs": [],
      "name": "Destroyed",
      "outputs": [
        {
          "name": "",
          "type": "uint8"
        }
      ],
      "payable": false,
      "stateMutability": "view",
      "type": "function"
    },
    {
      "constant": false,
      "inputs": [],
      "name": "acceptAssignment",
      "outputs": [],
      "payable": false,
      "stateMutability": "nonpayable",
      "type": "function"
    },
    {
      "constant": false,
      "inputs": [],
      "name": "increaseReputation",
      "outputs": [],
      "payable": false,
      "stateMutability": "nonpayable",
      "type": "function"
    },
    {
      "constant": true,
      "inputs": [],
      "name": "InsufficientStake",
      "outputs": [
        {
          "name": "",
          "type": "uint8"
        }
      ],
      "payable": false,
      "stateMutability": "view",
      "type": "function"
    },
    {
      "constant": true,
      "inputs": [],
      "name": "Assigned",
      "outputs": [
        {
          "name": "",
          "type": "uint8"
        }
      ],
      "payable": false,
      "stateMutability": "view",
      "type": "function"
    },
    {
      "constant": false,
      "inputs": [
        {
          "name": "newOwner",
          "type": "address"
        }
      ],
      "name": "transferOwnership",
      "outputs": [],
      "payable": false,
      "stateMutability": "nonpayable",
      "type": "function"
    },
    {
      "constant": false,
      "inputs": [
        {
          "name": "_pandora",
          "type": "address"
        }
      ],
      "name": "destroyAndSend",
      "outputs": [],
      "payable": false,
      "stateMutability": "nonpayable",
      "type": "constructor"
    },
    {
      "inputs": [
        {
          "name": "_pandora",
          "type": "address"
        }
      ],
      "payable": false,
      "stateMutability": "nonpayable",
      "type": "event",
      "anonymous": false,
      "name": "WorkerDestroyed"
    },
    {
      "anonymous": false,
      "inputs": [
        {
          "indexed": false,
          "name": "oldState",
          "type": "uint8"
        },
        {
          "indexed": false,
          "name": "newState",
          "type": "uint8"
        }
      ],
      "name": "StateChanged",
      "type": "event"
    },
    {
      "anonymous": false,
      "inputs": [
        {
          "indexed": true,
          "name": "previousOwner",
          "type": "address"
        },
        {
          "indexed": true,
          "name": "newOwner",
          "type": "address"
        }
      ],
      "name": "OwnershipTransferred",
      "type": "event"
    }
  ],
  "bytecode": "0x606060405234156200001057600080fd5b60405160208062003d0a83398101604052808051906020019091905050336000806101000a81548173ffffffffffffffffffffffffffffffffffffffff021916908373ffffffffffffffffffffffffffffffffffffffff160217905550600073ffffffffffffffffffffffffffffffffffffffff168173ffffffffffffffffffffffffffffffffffffffff1614151515620000aa57600080fd5b80600760006101000a81548173ffffffffffffffffffffffffffffffffffffffff021916908373ffffffffffffffffffffffffffffffffffffffff16021790555060006009819055506000600860006101000a81548173ffffffffffffffffffffffffffffffffffffffff021916908373ffffffffffffffffffffffffffffffffffffffff160217905550620001536200015a6401000000000262002bdc176401000000009004565b5062000955565b600060056001019050606060405190810160405280600260ff1660ff168152602001600160ff1660ff168152602001600860ff1660ff168152508160008060ff1660ff168152602001908152602001600020906003620001bc92919062000718565b50602060405190810160405280600260ff1660ff16815250816000600160ff1660ff168152602001908152602001600020906001620001fd929190620007c6565b50608060405190810160405280600160ff1660ff168152602001600960ff1660ff168152602001600360ff1660ff16815260200160ff801660ff16815250816000600260ff1660ff1681526020019081526020016000209060046200026492919062000874565b50606060405190810160405280600160ff1660ff168152602001600960ff1660ff168152602001600460ff1660ff16815250816000600360ff1660ff168152602001908152602001600020906003620002bf92919062000718565b50608060405190810160405280600560ff1660ff168152602001600160ff1660ff168152602001600960ff1660ff168152602001600260ff1660ff16815250816000600460ff1660ff1681526020019081526020016000209060046200032792919062000874565b50606060405190810160405280600160ff1660ff168152602001600860ff1660ff168152602001600260ff1660ff16815250816000600960ff1660ff1681526020019081526020016000209060036200038292919062000718565b50608060405190810160405280600160ff1660ff168152602001600260ff1660ff168152602001600960ff1660ff168152602001600660ff1660ff16815250816000600560ff1660ff168152602001908152602001600020906004620003ea92919062000874565b50608060405190810160405280600760ff1660ff168152602001600160ff1660ff168152602001600960ff1660ff168152602001600260ff1660ff16815250816000600660ff1660ff1681526020019081526020016000209060046200045292919062000874565b50606060405190810160405280600160ff1660ff168152602001600960ff1660ff168152602001600260ff1660ff16815250816000600760ff1660ff168152602001908152602001600020906003620004ad92919062000718565b50606060405190810160405280600160ff1660ff168152602001600260ff1660ff16815260200160ff801660ff16815250816000600860ff1660ff1681526020019081526020016000209060036200050792919062000718565b5062000526620005486401000000000262002fa0176401000000009004565b6001600560000160016101000a81548160ff021916908360ff16021790555050565b6040805190810160405280601181526020017f5f696e697453746174654d616368696e65000000000000000000000000000000815250600015156004826040518082805190602001908083835b602083101515620005bc578051825260208201915060208101905060208303925062000595565b6001836020036101000a038019825116818451168082178552505050505050905001915050908152602001604051809103902060009054906101000a900460ff1615151415156200060c57600080fd5b6200062c6005620006b564010000000002620030f2176401000000009004565b60016004826040518082805190602001908083835b60208310151562000668578051825260208201915060208101905060208303925062000641565b6001836020036101000a038019825116818451168082178552505050505050905001915050908152602001604051809103902060006101000a81548160ff02191690831515021790555050565b600015158160000160009054906101000a900460ff161515141515620006da57600080fd5b60018160000160016101000a81548160ff021916908360ff16021790555060018160000160006101000a81548160ff02191690831515021790555050565b82805482825590600052602060002090601f01602090048101928215620007b35791602002820160005b838211156200078257835183826101000a81548160ff021916908360ff160217905550926020019260010160208160000104928301926001030262000742565b8015620007b15782816101000a81549060ff021916905560010160208160000104928301926001030262000782565b505b509050620007c2919062000922565b5090565b82805482825590600052602060002090601f01602090048101928215620008615791602002820160005b838211156200083057835183826101000a81548160ff021916908360ff1602179055509260200192600101602081600001049283019260010302620007f0565b80156200085f5782816101000a81549060ff021916905560010160208160000104928301926001030262000830565b505b50905062000870919062000922565b5090565b82805482825590600052602060002090601f016020900481019282156200090f5791602002820160005b83821115620008de57835183826101000a81548160ff021916908360ff16021790555092602001926001016020816000010492830192600103026200089e565b80156200090d5782816101000a81549060ff0219169055600101602081600001049283019260010302620008de565b505b5090506200091e919062000922565b5090565b6200095291905b808211156200094e57600081816101000a81549060ff02191690555060010162000929565b5090565b90565b6133a580620009656000396000f3006060604052600436106101b7576000357c0100000000000000000000000000000000000000000000000000000000900463ffffffff16806306401ff4146101bc5780630c3f6acf146101d15780631a0bc596146102005780631a6b2eb1146102555780631c72fad41461026a5780631d53dbed146102995780633b976974146102c857806347850cce146102f7578063481deb4e1461030c5780635200e79e1461033a578063597c0b7c1461034f5780635e903db0146103645780635fd8c7101461037957806374de5bde1461038e578063753899e9146103bd57806377c6cc38146103d2578063822bb4d1146103e757806383197ef014610416578063897399ae1461042b5780638da5cb5b146104645780638daeaa40146104b95780638dd172a21461050e5780638f8004cf1461053d578063a73de1ec14610552578063ae897c5514610567578063b07c747514610596578063c162bef5146105ab578063c52164c6146105c0578063c80ce25d146105e9578063cc0e82c114610618578063df12e6c314610647578063e5469d9f1461065c578063f1bc94d214610671578063f2361410146106a0578063f2fde38b146106cf575b600080fd5b34156101c757600080fd5b6101cf610708565b005b34156101dc57600080fd5b6101e46107e5565b604051808260ff1660ff16815260200191505060405180910390f35b341561020b57600080fd5b6102136107ff565b604051808273ffffffffffffffffffffffffffffffffffffffff1673ffffffffffffffffffffffffffffffffffffffff16815260200191505060405180910390f35b341561026057600080fd5b610268610825565b005b341561027557600080fd5b61027d610a13565b604051808260ff1660ff16815260200191505060405180910390f35b34156102a457600080fd5b6102ac610a18565b604051808260ff1660ff16815260200191505060405180910390f35b34156102d357600080fd5b6102db610a1d565b604051808260ff1660ff16815260200191505060405180910390f35b341561030257600080fd5b61030a610a22565b005b341561031757600080fd5b61033860048080359060200190820180359060200191909192905050610c10565b005b341561034557600080fd5b61034d610e0b565b005b341561035a57600080fd5b610362610fe6565b005b341561036f57600080fd5b6103776111c1565b005b341561038457600080fd5b61038c6113af565b005b341561039957600080fd5b6103a16114a0565b604051808260ff1660ff16815260200191505060405180910390f35b34156103c857600080fd5b6103d06114a5565b005b34156103dd57600080fd5b6103e5611582565b005b34156103f257600080fd5b6103fa61165f565b604051808260ff1660ff16815260200191505060405180910390f35b341561042157600080fd5b610429611664565b005b341561043657600080fd5b610462600480803573ffffffffffffffffffffffffffffffffffffffff16906020019091905050611784565b005b341561046f57600080fd5b610477611ad3565b604051808273ffffffffffffffffffffffffffffffffffffffff1673ffffffffffffffffffffffffffffffffffffffff16815260200191505060405180910390f35b34156104c457600080fd5b6104cc611af8565b604051808273ffffffffffffffffffffffffffffffffffffffff1673ffffffffffffffffffffffffffffffffffffffff16815260200191505060405180910390f35b341561051957600080fd5b610521611b1e565b604051808260ff1660ff16815260200191505060405180910390f35b341561054857600080fd5b610550611b23565b005b341561055d57600080fd5b610565611dce565b005b341561057257600080fd5b61057a612095565b604051808260ff1660ff16815260200191505060405180910390f35b34156105a157600080fd5b6105a961209a565b005b34156105b657600080fd5b6105be61229f565b005b34156105cb57600080fd5b6105d3612483565b6040518082815260200191505060405180910390f35b34156105f457600080fd5b6105fc612489565b604051808260ff1660ff16815260200191505060405180910390f35b341561062357600080fd5b61062b61248e565b604051808260ff1660ff16815260200191505060405180910390f35b341561065257600080fd5b61065a612493565b005b341561066757600080fd5b61066f612677565b005b341561067c57600080fd5b610684612745565b604051808260ff1660ff16815260200191505060405180910390f35b34156106ab57600080fd5b6106b361274a565b604051808260ff1660ff16815260200191505060405180910390f35b34156106da57600080fd5b610706600480803573ffffffffffffffffffffffffffffffffffffffff1690602001909190505061274f565b005b60068060ff16600560000160019054906101000a900460ff1660ff1614151561073057600080fd5b60076000600560000160019054906101000a900460ff16905061075d8260056128a490919063ffffffff16565b81600560000160016101000a81548160ff021916908360ff1602179055507fe8a97ea87e4388fa22d496b95a8ed5ced6717f49790318de2b928aaf37a021d881600560000160019054906101000a900460ff16604051808360ff1660ff1681526020018260ff1660ff1681526020019250505060405180910390a16107e0612974565b505050565b6000600560000160019054906101000a900460ff16905090565b600760009054906101000a900473ffffffffffffffffffffffffffffffffffffffff1681565b60058060ff16600560000160019054906101000a900460ff1660ff1614151561084d57600080fd5b60026000600560000160019054906101000a900460ff16905061087a8260056128a490919063ffffffff16565b600073ffffffffffffffffffffffffffffffffffffffff16600860009054906101000a900473ffffffffffffffffffffffffffffffffffffffff1673ffffffffffffffffffffffffffffffffffffffff16141515156108d857600080fd5b600860009054906101000a900473ffffffffffffffffffffffffffffffffffffffff1673ffffffffffffffffffffffffffffffffffffffff1663b225be4260016040518263ffffffff167c01000000000000000000000000000000000000000000000000000000000281526004018082600281111561095357fe5b60ff168152602001915050600060405180830381600087803b151561097757600080fd5b6102c65a03f1151561098857600080fd5b50505081600560000160016101000a81548160ff021916908360ff1602179055507fe8a97ea87e4388fa22d496b95a8ed5ced6717f49790318de2b928aaf37a021d881600560000160019054906101000a900460ff16604051808360ff1660ff1681526020018260ff1660ff1681526020019250505060405180910390a1610a0e612974565b505050565b600081565b600781565b600681565b60058060ff16600560000160019054906101000a900460ff1660ff16141515610a4a57600080fd5b60026000600560000160019054906101000a900460ff169050610a778260056128a490919063ffffffff16565b600073ffffffffffffffffffffffffffffffffffffffff16600860009054906101000a900473ffffffffffffffffffffffffffffffffffffffff1673ffffffffffffffffffffffffffffffffffffffff1614151515610ad557600080fd5b600860009054906101000a900473ffffffffffffffffffffffffffffffffffffffff1673ffffffffffffffffffffffffffffffffffffffff1663b225be4260026040518263ffffffff167c010000000000000000000000000000000000000000000000000000000002815260040180826002811115610b5057fe5b60ff168152602001915050600060405180830381600087803b1515610b7457600080fd5b6102c65a03f11515610b8557600080fd5b50505081600560000160016101000a81548160ff021916908360ff1602179055507fe8a97ea87e4388fa22d496b95a8ed5ced6717f49790318de2b928aaf37a021d881600560000160019054906101000a900460ff16604051808360ff1660ff1681526020018260ff1660ff1681526020019250505060405180910390a1610c0b612974565b505050565b60078060ff16600560000160019054906101000a900460ff1660ff16141515610c3857600080fd5b60026000600560000160019054906101000a900460ff169050610c658260056128a490919063ffffffff16565b600073ffffffffffffffffffffffffffffffffffffffff16600860009054906101000a900473ffffffffffffffffffffffffffffffffffffffff1673ffffffffffffffffffffffffffffffffffffffff1614151515610cc357600080fd5b600860009054906101000a900473ffffffffffffffffffffffffffffffffffffffff1673ffffffffffffffffffffffffffffffffffffffff16634e6b42a886866040518363ffffffff167c01000000000000000000000000000000000000000000000000000000000281526004018080602001828103825284848281815260200192508082843782019150509350505050600060405180830381600087803b1515610d6d57600080fd5b6102c65a03f11515610d7e57600080fd5b50505081600560000160016101000a81548160ff021916908360ff1602179055507fe8a97ea87e4388fa22d496b95a8ed5ced6717f49790318de2b928aaf37a021d881600560000160019054906101000a900460ff16604051808360ff1660ff1681526020018260ff1660ff1681526020019250505060405180910390a1610e04612974565b5050505050565b600073ffffffffffffffffffffffffffffffffffffffff16600760009054906101000a900473ffffffffffffffffffffffffffffffffffffffff1673ffffffffffffffffffffffffffffffffffffffff1614151515610e6957600080fd5b600760009054906101000a900473ffffffffffffffffffffffffffffffffffffffff1673ffffffffffffffffffffffffffffffffffffffff163373ffffffffffffffffffffffffffffffffffffffff16141515610ec557600080fd5b60096000600560000160019054906101000a900460ff169050610ef282600561297690919063ffffffff16565b7fe8a97ea87e4388fa22d496b95a8ed5ced6717f49790318de2b928aaf37a021d881600560000160019054906101000a900460ff16604051808360ff1660ff1681526020018260ff1660ff1681526020019250505060405180910390a1610f57612974565b600060098190555080600560000160016101000a81548160ff021916908360ff1602179055507fe8a97ea87e4388fa22d496b95a8ed5ced6717f49790318de2b928aaf37a021d882600560000160019054906101000a900460ff16604051808360ff1660ff1681526020018260ff1660ff1681526020019250505060405180910390a1610fe2612974565b5050565b600073ffffffffffffffffffffffffffffffffffffffff16600760009054906101000a900473ffffffffffffffffffffffffffffffffffffffff1673ffffffffffffffffffffffffffffffffffffffff161415151561104457600080fd5b600760009054906101000a900473ffffffffffffffffffffffffffffffffffffffff1673ffffffffffffffffffffffffffffffffffffffff163373ffffffffffffffffffffffffffffffffffffffff161415156110a057600080fd5b60096000600560000160019054906101000a900460ff1690506110cd82600561297690919063ffffffff16565b7fe8a97ea87e4388fa22d496b95a8ed5ced6717f49790318de2b928aaf37a021d881600560000160019054906101000a900460ff16604051808360ff1660ff1681526020018260ff1660ff1681526020019250505060405180910390a1611132612974565b600060098190555080600560000160016101000a81548160ff021916908360ff1602179055507fe8a97ea87e4388fa22d496b95a8ed5ced6717f49790318de2b928aaf37a021d882600560000160019054906101000a900460ff16604051808360ff1660ff1681526020018260ff1660ff1681526020019250505060405180910390a16111bd612974565b5050565b60058060ff16600560000160019054906101000a900460ff1660ff161415156111e957600080fd5b60066000600560000160019054906101000a900460ff1690506112168260056128a490919063ffffffff16565b600073ffffffffffffffffffffffffffffffffffffffff16600860009054906101000a900473ffffffffffffffffffffffffffffffffffffffff1673ffffffffffffffffffffffffffffffffffffffff161415151561127457600080fd5b600860009054906101000a900473ffffffffffffffffffffffffffffffffffffffff1673ffffffffffffffffffffffffffffffffffffffff1663b225be4260006040518263ffffffff167c0100000000000000000000000000000000000000000000000000000000028152600401808260028111156112ef57fe5b60ff168152602001915050600060405180830381600087803b151561131357600080fd5b6102c65a03f1151561132457600080fd5b50505081600560000160016101000a81548160ff021916908360ff1602179055507fe8a97ea87e4388fa22d496b95a8ed5ced6717f49790318de2b928aaf37a021d881600560000160019054906101000a900460ff16604051808360ff1660ff1681526020018260ff1660ff1681526020019250505060405180910390a16113aa612974565b505050565b6000809054906101000a900473ffffffffffffffffffffffffffffffffffffffff1673ffffffffffffffffffffffffffffffffffffffff163373ffffffffffffffffffffffffffffffffffffffff1614151561140a57600080fd5b6002600161142482826005612b109092919063ffffffff16565b6000809054906101000a900473ffffffffffffffffffffffffffffffffffffffff1673ffffffffffffffffffffffffffffffffffffffff166108fc3073ffffffffffffffffffffffffffffffffffffffff16319081150290604051600060405180830381858888f19350505050151561149c57600080fd5b5050565b600581565b60018060ff16600560000160019054906101000a900460ff1660ff161415156114cd57600080fd5b60026000600560000160019054906101000a900460ff1690506114fa8260056128a490919063ffffffff16565b81600560000160016101000a81548160ff021916908360ff1602179055507fe8a97ea87e4388fa22d496b95a8ed5ced6717f49790318de2b928aaf37a021d881600560000160019054906101000a900460ff16604051808360ff1660ff1681526020018260ff1660ff1681526020019250505060405180910390a161157d612974565b505050565b60048060ff16600560000160019054906101000a900460ff1660ff161415156115aa57600080fd5b60056000600560000160019054906101000a900460ff1690506115d78260056128a490919063ffffffff16565b81600560000160016101000a81548160ff021916908360ff1602179055507fe8a97ea87e4388fa22d496b95a8ed5ced6717f49790318de2b928aaf37a021d881600560000160019054906101000a900460ff16604051808360ff1660ff1681526020018260ff1660ff1681526020019250505060405180910390a161165a612974565b505050565b600181565b600073ffffffffffffffffffffffffffffffffffffffff16600760009054906101000a900473ffffffffffffffffffffffffffffffffffffffff1673ffffffffffffffffffffffffffffffffffffffff16141515156116c257600080fd5b600760009054906101000a900473ffffffffffffffffffffffffffffffffffffffff1673ffffffffffffffffffffffffffffffffffffffff163373ffffffffffffffffffffffffffffffffffffffff1614151561171e57600080fd5b7f4447806c1856b9de7671994ea8dbdc03abd565d1b8c00ffc5fa053c49bd40ecc60405160405180910390a16000809054906101000a900473ffffffffffffffffffffffffffffffffffffffff1673ffffffffffffffffffffffffffffffffffffffff16ff5b60008073ffffffffffffffffffffffffffffffffffffffff16600760009054906101000a900473ffffffffffffffffffffffffffffffffffffffff1673ffffffffffffffffffffffffffffffffffffffff16141515156117e357600080fd5b3390508073ffffffffffffffffffffffffffffffffffffffff16631a0bc5966000604051602001526040518163ffffffff167c0100000000000000000000000000000000000000000000000000000000028152600401602060405180830381600087803b151561185257600080fd5b6102c65a03f1151561186357600080fd5b5050506040518051905073ffffffffffffffffffffffffffffffffffffffff16600760009054906101000a900473ffffffffffffffffffffffffffffffffffffffff1673ffffffffffffffffffffffffffffffffffffffff161415156118c857600080fd5b600760009054906101000a900473ffffffffffffffffffffffffffffffffffffffff1673ffffffffffffffffffffffffffffffffffffffff16630ba58574826000604051602001526040518263ffffffff167c0100000000000000000000000000000000000000000000000000000000028152600401808273ffffffffffffffffffffffffffffffffffffffff1673ffffffffffffffffffffffffffffffffffffffff168152602001915050602060405180830381600087803b151561198d57600080fd5b6102c65a03f1151561199e57600080fd5b5050506040518051905015156119b357600080fd5b60028060ff16600560000160019054906101000a900460ff1660ff161415156119db57600080fd5b60036000600560000160019054906101000a900460ff169050611a088260056128a490919063ffffffff16565b84600860006101000a81548173ffffffffffffffffffffffffffffffffffffffff021916908373ffffffffffffffffffffffffffffffffffffffff16021790555081600560000160016101000a81548160ff021916908360ff1602179055507fe8a97ea87e4388fa22d496b95a8ed5ced6717f49790318de2b928aaf37a021d881600560000160019054906101000a900460ff16604051808360ff1660ff1681526020018260ff1660ff1681526020019250505060405180910390a1611acc612974565b5050505050565b6000809054906101000a900473ffffffffffffffffffffffffffffffffffffffff1681565b600860009054906101000a900473ffffffffffffffffffffffffffffffffffffffff1681565b600981565b600073ffffffffffffffffffffffffffffffffffffffff16600760009054906101000a900473ffffffffffffffffffffffffffffffffffffffff1673ffffffffffffffffffffffffffffffffffffffff1614151515611b8157600080fd5b600760009054906101000a900473ffffffffffffffffffffffffffffffffffffffff1673ffffffffffffffffffffffffffffffffffffffff163373ffffffffffffffffffffffffffffffffffffffff16141515611bdd57600080fd5b60096000600560000160019054906101000a900460ff169050611c0a82600561297690919063ffffffff16565b7fe8a97ea87e4388fa22d496b95a8ed5ced6717f49790318de2b928aaf37a021d881600560000160019054906101000a900460ff16604051808360ff1660ff1681526020018260ff1660ff1681526020019250505060405180910390a1611c6f612974565b6000600981905550600760009054906101000a900473ffffffffffffffffffffffffffffffffffffffff1673ffffffffffffffffffffffffffffffffffffffff1663ae1092ae306040518263ffffffff167c0100000000000000000000000000000000000000000000000000000000028152600401808273ffffffffffffffffffffffffffffffffffffffff1673ffffffffffffffffffffffffffffffffffffffff168152602001915050600060405180830381600087803b1515611d3357600080fd5b6102c65a03f11515611d4457600080fd5b50505080600560000160016101000a81548160ff021916908360ff1602179055507fe8a97ea87e4388fa22d496b95a8ed5ced6717f49790318de2b928aaf37a021d882600560000160019054906101000a900460ff16604051808360ff1660ff1681526020018260ff1660ff1681526020019250505060405180910390a1611dca612974565b5050565b600073ffffffffffffffffffffffffffffffffffffffff16600760009054906101000a900473ffffffffffffffffffffffffffffffffffffffff1673ffffffffffffffffffffffffffffffffffffffff1614151515611e2c57600080fd5b600760009054906101000a900473ffffffffffffffffffffffffffffffffffffffff1673ffffffffffffffffffffffffffffffffffffffff163373ffffffffffffffffffffffffffffffffffffffff16141515611e8857600080fd5b60096000600560000160019054906101000a900460ff169050611eb582600561297690919063ffffffff16565b7fe8a97ea87e4388fa22d496b95a8ed5ced6717f49790318de2b928aaf37a021d881600560000160019054906101000a900460ff16604051808360ff1660ff1681526020018260ff1660ff1681526020019250505060405180910390a1611f1a612974565b60006009541415611ffa57600760009054906101000a900473ffffffffffffffffffffffffffffffffffffffff1673ffffffffffffffffffffffffffffffffffffffff1663ae1092ae306040518263ffffffff167c0100000000000000000000000000000000000000000000000000000000028152600401808273ffffffffffffffffffffffffffffffffffffffff1673ffffffffffffffffffffffffffffffffffffffff168152602001915050600060405180830381600087803b1515611fe157600080fd5b6102c65a03f11515611ff257600080fd5b50505061200e565b600960008154809291906001900391905055505b80600560000160016101000a81548160ff021916908360ff1602179055507fe8a97ea87e4388fa22d496b95a8ed5ced6717f49790318de2b928aaf37a021d882600560000160019054906101000a900460ff16604051808360ff1660ff1681526020018260ff1660ff1681526020019250505060405180910390a1612091612974565b5050565b600281565b600860009054906101000a900473ffffffffffffffffffffffffffffffffffffffff1673ffffffffffffffffffffffffffffffffffffffff163373ffffffffffffffffffffffffffffffffffffffff161415156120f657600080fd5b600360ff16600560000160019054906101000a900460ff1660ff1614806121355750600460ff16600560000160019054906101000a900460ff1660ff16145b806121585750600560ff16600560000160019054906101000a900460ff1660ff16145b8061217b5750600660ff16600560000160019054906101000a900460ff1660ff16145b8061219e5750600760ff16600560000160019054906101000a900460ff1660ff16145b15156121a957600080fd5b60026000600560000160019054906101000a900460ff1690506121d68260056128a490919063ffffffff16565b6000600860006101000a81548173ffffffffffffffffffffffffffffffffffffffff021916908373ffffffffffffffffffffffffffffffffffffffff16021790555081600560000160016101000a81548160ff021916908360ff1602179055507fe8a97ea87e4388fa22d496b95a8ed5ced6717f49790318de2b928aaf37a021d881600560000160019054906101000a900460ff16604051808360ff1660ff1681526020018260ff1660ff1681526020019250505060405180910390a161229b612974565b5050565b60038060ff16600560000160019054906101000a900460ff1660ff161415156122c757600080fd5b60026000600560000160019054906101000a900460ff1690506122f48260056128a490919063ffffffff16565b600073ffffffffffffffffffffffffffffffffffffffff16600860009054906101000a900473ffffffffffffffffffffffffffffffffffffffff1673ffffffffffffffffffffffffffffffffffffffff161415151561235257600080fd5b600860009054906101000a900473ffffffffffffffffffffffffffffffffffffffff1673ffffffffffffffffffffffffffffffffffffffff166364d3414c60006040518263ffffffff167c01000000000000000000000000000000000000000000000000000000000281526004018082151515158152602001915050600060405180830381600087803b15156123e757600080fd5b6102c65a03f115156123f857600080fd5b50505081600560000160016101000a81548160ff021916908360ff1602179055507fe8a97ea87e4388fa22d496b95a8ed5ced6717f49790318de2b928aaf37a021d881600560000160019054906101000a900460ff16604051808360ff1660ff1681526020018260ff1660ff1681526020019250505060405180910390a161247e612974565b505050565b60095481565b600481565b60ff81565b60038060ff16600560000160019054906101000a900460ff1660ff161415156124bb57600080fd5b60046000600560000160019054906101000a900460ff1690506124e88260056128a490919063ffffffff16565b600073ffffffffffffffffffffffffffffffffffffffff16600860009054906101000a900473ffffffffffffffffffffffffffffffffffffffff1673ffffffffffffffffffffffffffffffffffffffff161415151561254657600080fd5b600860009054906101000a900473ffffffffffffffffffffffffffffffffffffffff1673ffffffffffffffffffffffffffffffffffffffff166364d3414c60016040518263ffffffff167c01000000000000000000000000000000000000000000000000000000000281526004018082151515158152602001915050600060405180830381600087803b15156125db57600080fd5b6102c65a03f115156125ec57600080fd5b50505081600560000160016101000a81548160ff021916908360ff1602179055507fe8a97ea87e4388fa22d496b95a8ed5ced6717f49790318de2b928aaf37a021d881600560000160019054906101000a900460ff16604051808360ff1660ff1681526020018260ff1660ff1681526020019250505060405180910390a1612672612974565b505050565b600073ffffffffffffffffffffffffffffffffffffffff16600760009054906101000a900473ffffffffffffffffffffffffffffffffffffffff1673ffffffffffffffffffffffffffffffffffffffff16141515156126d557600080fd5b600760009054906101000a900473ffffffffffffffffffffffffffffffffffffffff1673ffffffffffffffffffffffffffffffffffffffff163373ffffffffffffffffffffffffffffffffffffffff1614151561273157600080fd5b600960008154809291906001019190505550565b600881565b600381565b6000809054906101000a900473ffffffffffffffffffffffffffffffffffffffff1673ffffffffffffffffffffffffffffffffffffffff163373ffffffffffffffffffffffffffffffffffffffff161415156127aa57600080fd5b600073ffffffffffffffffffffffffffffffffffffffff168173ffffffffffffffffffffffffffffffffffffffff16141515156127e657600080fd5b8073ffffffffffffffffffffffffffffffffffffffff166000809054906101000a900473ffffffffffffffffffffffffffffffffffffffff1673ffffffffffffffffffffffffffffffffffffffff167f8be0079c531659141344cd1fd0a4f28419497f9722a3daafe3b4186f6b6457e060405160405180910390a3806000806101000a81548173ffffffffffffffffffffffffffffffffffffffff021916908373ffffffffffffffffffffffffffffffffffffffff16021790555050565b600080600060ff8560000160019054906101000a900460ff1660ff16141515156128ca57fe5b600092508460010160008660000160019054906101000a900460ff1660ff1660ff1681526020019081526020016000209150600090505b818054905081101561295a578360ff16828281548110151561291f57fe5b90600052602060002090602091828204019190069054906101000a900460ff1660ff16141561294d57600192505b8080600101915050612901565b6001151583151514151561296d57600080fd5b5050505050565b565b60008060008060ff8660000160019054906101000a900460ff1660ff161415151561299d57fe5b600093508560010160008760000160019054906101000a900460ff1660ff1660ff1681526020019081526020016000209250600091505b8280549050821015612a31578460ff1683838154811015156129f257fe5b90600052602060002090602091828204019190069054906101000a900460ff1660ff161415612a245760019350612a31565b81806001019250506129d4565b60011515841515141515612a4457600080fd5b600090508560010160008660ff1660ff1681526020019081526020016000209250600091505b8280549050821015612ad8578560000160019054906101000a900460ff1660ff168383815481101515612a9957fe5b90600052602060002090602091828204019190069054906101000a900460ff1660ff161415612acb5760019050612ad8565b8180600101925050612a6a565b60011515811515141515612aeb57600080fd5b848660000160016101000a81548160ff021916908360ff160217905550505050505050565b6000612b1a612bb2565b600080925060408051908101604052808660ff1660ff1681526020018560ff1660ff168152509150600090505b6002811015612b97578560000160019054906101000a900460ff1660ff168282600281101515612b7357fe5b602002015160ff161415612b8a5760019250612b97565b8080600101915050612b47565b60011515831515141515612baa57600080fd5b505050505050565b60408051908101604052806002905b600060ff16815260200190600190039081612bc15790505090565b600060056001019050606060405190810160405280600260ff1660ff168152602001600160ff1660ff168152602001600860ff1660ff168152508160008060ff1660ff168152602001908152602001600020906003612c3c929190613154565b50602060405190810160405280600260ff1660ff16815250816000600160ff1660ff168152602001908152602001600020906001612c7b9291906131fb565b50608060405190810160405280600160ff1660ff168152602001600960ff1660ff168152602001600360ff1660ff16815260200160ff801660ff16815250816000600260ff1660ff168152602001908152602001600020906004612ce09291906132a2565b50606060405190810160405280600160ff1660ff168152602001600960ff1660ff168152602001600460ff1660ff16815250816000600360ff1660ff168152602001908152602001600020906003612d39929190613154565b50608060405190810160405280600560ff1660ff168152602001600160ff1660ff168152602001600960ff1660ff168152602001600260ff1660ff16815250816000600460ff1660ff168152602001908152602001600020906004612d9f9291906132a2565b50606060405190810160405280600160ff1660ff168152602001600860ff1660ff168152602001600260ff1660ff16815250816000600960ff1660ff168152602001908152602001600020906003612df8929190613154565b50608060405190810160405280600160ff1660ff168152602001600260ff1660ff168152602001600960ff1660ff168152602001600660ff1660ff16815250816000600560ff1660ff168152602001908152602001600020906004612e5e9291906132a2565b50608060405190810160405280600760ff1660ff168152602001600160ff1660ff168152602001600960ff1660ff168152602001600260ff1660ff16815250816000600660ff1660ff168152602001908152602001600020906004612ec49291906132a2565b50606060405190810160405280600160ff1660ff168152602001600960ff1660ff168152602001600260ff1660ff16815250816000600760ff1660ff168152602001908152602001600020906003612f1d929190613154565b50606060405190810160405280600160ff1660ff168152602001600260ff1660ff16815260200160ff801660ff16815250816000600860ff1660ff168152602001908152602001600020906003612f75929190613154565b50612f7e612fa0565b6001600560000160016101000a81548160ff021916908360ff16021790555050565b6040805190810160405280601181526020017f5f696e697453746174654d616368696e65000000000000000000000000000000815250600015156004826040518082805190602001908083835b6020831015156130125780518252602082019150602081019050602083039250612fed565b6001836020036101000a038019825116818451168082178552505050505050905001915050908152602001604051809103902060009054906101000a900460ff16151514151561306157600080fd5b61306b60056130f2565b60016004826040518082805190602001908083835b6020831015156130a55780518252602082019150602081019050602083039250613080565b6001836020036101000a038019825116818451168082178552505050505050905001915050908152602001604051809103902060006101000a81548160ff02191690831515021790555050565b600015158160000160009054906101000a900460ff16151514151561311657600080fd5b60018160000160016101000a81548160ff021916908360ff16021790555060018160000160006101000a81548160ff02191690831515021790555050565b82805482825590600052602060002090601f016020900481019282156131ea5791602002820160005b838211156131bb57835183826101000a81548160ff021916908360ff160217905550926020019260010160208160000104928301926001030261317d565b80156131e85782816101000a81549060ff02191690556001016020816000010492830192600103026131bb565b505b5090506131f79190613349565b5090565b82805482825590600052602060002090601f016020900481019282156132915791602002820160005b8382111561326257835183826101000a81548160ff021916908360ff1602179055509260200192600101602081600001049283019260010302613224565b801561328f5782816101000a81549060ff0219169055600101602081600001049283019260010302613262565b505b50905061329e9190613349565b5090565b82805482825590600052602060002090601f016020900481019282156133385791602002820160005b8382111561330957835183826101000a81548160ff021916908360ff16021790555092602001926001016020816000010492830192600103026132cb565b80156133365782816101000a81549060ff0219169055600101602081600001049283019260010302613309565b505b5090506133459190613349565b5090565b61337691905b8082111561337257600081816101000a81549060ff02191690555060010161334f565b5090565b905600a165627a7a72305820e799cd7ee8c3fa7922b32d4bbbeeeb1807f5d27d6c7f3e76d9d3fb7c129ba9600029",
  "source": "pragma solidity ^0.4.18;\n\nimport '../libraries/StateMachine.sol';\nimport '../pandora/IPandora.sol';\nimport '../jobs/IComputingJob.sol';\nimport './IWorkerNode.sol';\n\n/**\n * @title Worker Node Smart Contract\n * @author \"Dr Maxim Orlovsky\" <orlovsky@pandora.foundation>\n *\n * @dev # Worker Node Smart Contract\n *\n * Worker node contract accumulates funds/payments for performed cognitive work and contains inalienable reputation.\n * Note: In Pyrrha there is no mining. In the following versions all mined coins will be also assigned to the\n * `WorkerNode` contract\n *\n * Worker node acts as a state machine and each its function can be evoked only in some certain states. That's\n * why each function must have state machine-controlled function modifiers. Contract state is managed by\n * - Worker node code (second level of consensus)\n * - Main Pandora contract [Pandora.sol]\n * - Worker node contract itself\n */\n\ncontract WorkerNode is IWorkerNode, StateMachine /* final */ {\n    /**\n     * ## State Machine extensions\n     */\n\n    /// @dev Modifier requiring contract to be preset in one of the active states (`Assigned`, `ReadyForDataValidation`,\n    /// `ValidatingData`, `ReadyForComputing`, `Computing`); otherwise an exception is generated and the function\n    /// does not execute\n    modifier requireActiveStates() {\n        require(stateMachine.currentState == Assigned ||\n        stateMachine.currentState == ReadyForDataValidation ||\n        stateMachine.currentState == ValidatingData ||\n        stateMachine.currentState == ReadyForComputing ||\n        stateMachine.currentState == Computing);\n        _;\n    }\n\n    /// @dev Private method initializing state machine. Must be called only once from the contract constructor\n    function _initStateMachine() internal {\n        // Creating table of possible state transitions\n        var transitions = stateMachine.transitionTable;\n        transitions[Uninitialized] = [Idle, Offline, InsufficientStake];\n        transitions[Offline] = [Idle];\n        transitions[Idle] = [Offline, UnderPenalty, Assigned, Destroyed];\n        transitions[Assigned] = [Offline, UnderPenalty, ReadyForDataValidation];\n        transitions[ReadyForDataValidation] = [ValidatingData, Offline, UnderPenalty, Idle];\n        transitions[UnderPenalty] = [Offline, InsufficientStake, Idle];\n        transitions[ValidatingData] = [Offline, Idle, UnderPenalty, ReadyForComputing];\n        transitions[ReadyForComputing] = [Computing, Offline, UnderPenalty, Idle];\n        transitions[Computing] = [Offline, UnderPenalty, Idle];\n        transitions[InsufficientStake] = [Offline, Idle, Destroyed];\n\n        // Initializing state machine via base contract code\n        super._initStateMachine();\n\n        // Going into initial state (Offline)\n        stateMachine.currentState = Offline;\n    }\n\n    /**\n     * ## Main implementation\n     */\n\n    /// ### Public variables\n\n\n    /// @notice Reference to the main Pandora contract.\n    /// @dev Required to check the validity of the method calls coming from the Pandora contract.\n    /// Initialy set from the address supplied to the constructor and can't be changed after.\n    IPandora public pandora;\n\n    /// @notice Active cognitive job reference. Zero when there is no active cognitive job assigned or performed\n    /// @dev Valid (non-zero) only for active states (see `activeStates` modified for the list of such states)\n    IComputingJob public activeJob;\n\n    /// @notice Current worker node reputation. Can be changed only by the main Pandora contract via special\n    /// external function calls\n    /// @dev Reputation can't be transferred or bought.\n    uint256 public reputation;\n\n    event WorkerDestroyed();\n\n    /// ### Constructor and destructor\n\n    function WorkerNode (\n        IPandora _pandora /// Reference to the main Pandora contract that creates Worker Node\n    )\n    public {\n        require(_pandora != address(0));\n        pandora = _pandora;\n\n        // Initial reputation is always zero\n        reputation = 0;\n\n        // There should be no active cognitive job upon contract creation\n        activeJob = IComputingJob(0);\n\n        // Initialize state machine (state transition table and initial state). Always must be performed at the very\n        // end of contract constructor code.\n        _initStateMachine();\n    }\n\n    function destroy()\n    external\n    onlyPandora {\n        /// Call event before doing the actual contract suicide\n        WorkerDestroyed();\n\n        /// Suiciding\n        selfdestruct(owner);\n    }\n\n    /// ### Function modifiers\n\n    /// @dev Modifier for functions that can be called only by the main Pandora contract\n    modifier onlyPandora() {\n        require(pandora != address(0));\n        require(msg.sender == address(pandora));\n        _;\n    }\n\n    /// @dev Modifier for functions that can be called only by one of the active cognitive jobs performed under\n    /// main Pandora contract. It includes jobs _not_ assigned to the worker node\n    modifier onlyCognitiveJob() {\n        require(pandora != address(0));\n        IComputingJob sender = IComputingJob(msg.sender);\n        require(pandora == sender.pandora());\n        require(pandora.isActiveJob(sender));\n        _;\n    }\n\n    /// @dev Modifier for functions that can be called only by the cognitive job assigned or performed by the worker\n    /// node in one of its active states\n    modifier onlyActiveCognitiveJob() {\n        require(msg.sender == address(activeJob));\n        _;\n    }\n\n    /// ### External and public functions\n\n    function alive(\n        // No arguments\n    ) external // Can't be called internally\n        /* @fixme onlyOwner */\n        requireState(Offline)\n        transitionToState(Idle)\n    {\n        // Nothing to do here\n    }\n\n    /// @notice Do not call\n    /// @dev Assigns cognitive job to the worker. Can be called only by one of active cognitive jobs listed under\n    /// the main Pandora contract\n    function assignJob(\n        /// @dev Cognitive job to be assigned\n        IComputingJob _job\n    ) external // Can't be called internally\n        /// @dev Must be called only by one of active cognitive jobs listed under the main Pandora contract\n        onlyCognitiveJob\n        /// @dev Job can be assigned only to Idle workers\n        requireState(Idle)\n        /// @dev Successful completion must transition worker to an `Assigned` stage\n        transitionToState(Assigned)\n    {\n        activeJob = _job;\n    }\n\n    function cancelJob(\n        // No arguments\n    ) external // Can't be called internally\n        onlyActiveCognitiveJob\n        requireActiveStates\n        transitionToState(Idle)\n    {\n        activeJob = IComputingJob(0);\n    }\n\n    function acceptAssignment(\n        // No arguments\n    ) external // Can't be called internally\n        /* @fixme onlyOwner */\n        requireState(Assigned)\n        transitionToState(ReadyForDataValidation)\n    {\n        require(activeJob != IComputingJob(0));\n        activeJob.gatheringWorkersResponse(true);\n    }\n\n    function declineAssignment(\n        // No arguments\n    ) external // Can't be called internally\n        /* @fixme onlyOwner */\n        requireState(Assigned)\n        transitionToState(Idle)\n    {\n        require(activeJob != IComputingJob(0));\n        activeJob.gatheringWorkersResponse(false);\n    }\n\n    function processToDataValidation(\n        // No arguments\n    ) external // Can't be called internally\n        /* @fixme onlyOwner */\n        requireState(ReadyForDataValidation)\n        transitionToState(ValidatingData)\n    {\n        // All actual work is done by function modifiers\n    }\n\n    function acceptValidData(\n        // No arguments\n    ) external // Can't be called internally\n        /* @fixme onlyOwner */\n        requireState(ValidatingData)\n        transitionToState(ReadyForComputing)\n    {\n        require(activeJob != IComputingJob(0));\n        activeJob.dataValidationResponse(IComputingJob.DataValidationResponse.Accept);\n    }\n\n    function declineValidData(\n        // No arguments\n    ) external // Can't be called internally\n        /* @fixme onlyOwner */\n        requireState(ValidatingData)\n        transitionToState(Idle)\n    {\n        require(activeJob != IComputingJob(0));\n        activeJob.dataValidationResponse(IComputingJob.DataValidationResponse.Decline);\n    }\n\n    function reportInvalidData(\n        // No arguments\n    ) external // Can't be called internally\n        /* @fixme onlyOwner */\n        requireState(ValidatingData)\n        transitionToState(Idle)\n    {\n        require(activeJob != IComputingJob(0));\n        activeJob.dataValidationResponse(IComputingJob.DataValidationResponse.Invalid);\n    }\n\n    function processToCognition(\n        // No arguments\n    ) external // Can't be called internally\n        /* @fixme onlyOwner */\n        requireState(ReadyForComputing)\n        transitionToState(Computing)\n    {\n        // All actual work is done by function modifiers\n    }\n\n    function provideResults(\n        bytes _ipfsAddress\n    ) external // Can't be called internally\n        /* @fixme onlyOwner */\n        requireState(Computing)\n        transitionToState(Idle)\n    {\n        require(activeJob != IComputingJob(0));\n        activeJob.completeWork(_ipfsAddress);\n    }\n\n    function increaseReputation(\n        // No arguments\n    ) external // Can't be called internally\n        onlyPandora\n    {\n        reputation++;\n    }\n\n    function decreaseReputation(\n    ) external // Can't be called internally\n        onlyPandora\n        transitionThroughState(UnderPenalty)\n    {\n        if (reputation == 0) {\n            pandora.destroyWorkerNode(this);\n        } else {\n            reputation--;\n        }\n    }\n\n    function resetReputation(\n        // No arguments\n    ) external // Can't be called internally\n        // Only Pandora contract can put such penalty\n        onlyPandora\n        // State machine processes\n        transitionThroughState(UnderPenalty)\n    {\n        reputation = 0;\n    }\n\n    function maxPenalty(\n        // No arguments\n    ) external // Can't be called internally\n        // Only Pandora contract can put such penalty\n        onlyPandora\n        // State machine processes\n        transitionThroughState(UnderPenalty)\n    {\n        reputation = 0;\n    }\n\n    /// @notice For internal use by main Pandora contract\n    /// @dev Zeroes reputation and destroys node\n    function deathPenalty(\n    ) external // Can't be called internally\n        // Only Pandora contract can put such penalty\n        onlyPandora\n        // State machine processes\n        transitionThroughState(UnderPenalty)\n    {\n        // First, we put remove all reputation\n        reputation = 0;\n\n        // Use function from OpenZepplin Destructible contract\n        pandora.destroyWorkerNode(this);\n    }\n\n    /// @notice Withdraws full balance to the owner account. Can be called only by the owner of the contract.\n    function withdrawBalance(\n        // No arguments\n    ) external // Can't be called internally\n        onlyOwner // Can be called only by the owner\n        requireStates2(Idle, Offline)\n    {\n        /// @todo Handle stakes etc\n        owner.transfer(this.balance);\n    }\n}\n",
  "sourcePath": "/Users/orlovsky/Repositories/pandora/pyrrha-consensus/contracts/nodes/WorkerNode.sol",
  "compiler": {
    "name": "solc",
    "version": "0.4.18+commit.9cf6e910.Emscripten.clang"
  },
  "schemaVersion": "1.0.1",
  "updatedAt": "2017-12-19T15:26:54.619Z"
}