{
  "contractName": "WorkerNodeManager",
  "abi": [
    {
      "constant": true,
      "inputs": [],
      "name": "workerNodesCount",
      "outputs": [
        {
          "name": "",
          "type": "uint256"
        }
      ],
      "payable": false,
      "stateMutability": "view",
      "type": "function"
    },
    {
      "constant": true,
      "inputs": [],
      "name": "initialized",
      "outputs": [
        {
          "name": "",
          "type": "bool"
        }
      ],
      "payable": false,
      "stateMutability": "view",
      "type": "function"
    },
    {
      "constant": true,
      "inputs": [
        {
          "name": "",
          "type": "uint256"
        }
      ],
      "name": "workerNodes",
      "outputs": [
        {
          "name": "",
          "type": "address"
        }
      ],
      "payable": false,
      "stateMutability": "view",
      "type": "function"
    },
    {
      "constant": false,
      "inputs": [
        {
          "name": "_guiltyWorker",
          "type": "address"
        },
        {
          "name": "_reason",
          "type": "uint8"
        }
      ],
      "name": "penaltizeWorkerNode",
      "outputs": [],
      "payable": false,
      "stateMutability": "nonpayable",
      "type": "function"
    },
    {
      "constant": false,
      "inputs": [],
      "name": "initialize",
      "outputs": [],
      "payable": false,
      "stateMutability": "nonpayable",
      "type": "function"
    },
    {
      "constant": false,
      "inputs": [],
      "name": "createWorkerNode",
      "outputs": [
        {
          "name": "",
          "type": "address"
        }
      ],
      "payable": false,
      "stateMutability": "nonpayable",
      "type": "function"
    },
    {
      "constant": false,
      "inputs": [
        {
          "name": "_workerNode",
          "type": "address"
        }
      ],
      "name": "destroyWorkerNode",
      "outputs": [],
      "payable": false,
      "stateMutability": "nonpayable",
      "type": "function"
    },
    {
      "constant": true,
      "inputs": [],
      "name": "workerNodeFactory",
      "outputs": [
        {
          "name": "",
          "type": "address"
        }
      ],
      "payable": false,
      "stateMutability": "view",
      "type": "function"
    },
    {
      "constant": true,
      "inputs": [
        {
          "name": "",
          "type": "address"
        }
      ],
      "name": "workerAddresses",
      "outputs": [
        {
          "name": "",
          "type": "uint16"
        }
      ],
      "payable": false,
      "stateMutability": "view",
      "type": "function"
    },
    {
      "inputs": [
        {
          "name": "_nodeFactory",
          "type": "address"
        },
        {
          "name": "_workerNodeOwners",
          "type": "address[3]"
        }
      ],
      "payable": false,
      "stateMutability": "nonpayable",
      "type": "constructor"
    },
    {
      "anonymous": false,
      "inputs": [
        {
          "indexed": false,
          "name": "workerNode",
          "type": "address"
        }
      ],
      "name": "WorkerNodeCreated",
      "type": "event"
    },
    {
      "anonymous": false,
      "inputs": [
        {
          "indexed": false,
          "name": "workerNode",
          "type": "address"
        }
      ],
      "name": "WorkerNodeDestroyed",
      "type": "event"
    }
  ],
  "bytecode": "0x606060405260008060006101000a81548160ff021916908315150217905550341561002957600080fd5b60405160808062000fad83398101604052808051906020019091506000806000806101000a81548160ff021916908315150217905550600360ff16600314151561006f57fe5b600073ffffffffffffffffffffffffffffffffffffffff168373ffffffffffffffffffffffffffffffffffffffff16141515156100ab57600080fd5b82600360006101000a81548173ffffffffffffffffffffffffffffffffffffffff021916908373ffffffffffffffffffffffffffffffffffffffff160217905550600090505b60038160ff1610801561010a5750600360ff168160ff16105b156101e557600073ffffffffffffffffffffffffffffffffffffffff16828260ff1660038110151561013857fe5b602002015173ffffffffffffffffffffffffffffffffffffffff161415151561016057600080fd5b6006805480600101828161017491906101ed565b91600052602060002090016000848460ff1660038110151561019257fe5b6020020151909190916101000a81548173ffffffffffffffffffffffffffffffffffffffff021916908373ffffffffffffffffffffffffffffffffffffffff1602179055505080806001019150506100f1565b50505061023e565b815481835581811511610214578183600052602060002091820191016102139190610219565b5b505050565b61023b91905b8082111561023757600081600090555060010161021f565b5090565b90565b610d5f806200024e6000396000f300606060405260043610610099576000357c0100000000000000000000000000000000000000000000000000000000900463ffffffff1680630e3b581f1461009e578063158ef93e146100c75780631dc20af4146100f45780635ef17776146101575780638129fc1c1461019c57806386b07332146101b1578063ae1092ae14610206578063f9d84ade1461023f578063fdb5b8d414610294575b600080fd5b34156100a957600080fd5b6100b16102e9565b6040518082815260200191505060405180910390f35b34156100d257600080fd5b6100da610317565b604051808215151515815260200191505060405180910390f35b34156100ff57600080fd5b6101156004808035906020019091905050610329565b604051808273ffffffffffffffffffffffffffffffffffffffff1673ffffffffffffffffffffffffffffffffffffffff16815260200191505060405180910390f35b341561016257600080fd5b61019a600480803573ffffffffffffffffffffffffffffffffffffffff1690602001909190803560ff16906020019091905050610368565b005b34156101a757600080fd5b6101af61038d565b005b34156101bc57600080fd5b6101c46103a9565b604051808273ffffffffffffffffffffffffffffffffffffffff1673ffffffffffffffffffffffffffffffffffffffff16815260200191505060405180910390f35b341561021157600080fd5b61023d600480803573ffffffffffffffffffffffffffffffffffffffff16906020019091905050610768565b005b341561024a57600080fd5b610252610c6f565b604051808273ffffffffffffffffffffffffffffffffffffffff1673ffffffffffffffffffffffffffffffffffffffff16815260200191505060405180910390f35b341561029f57600080fd5b6102cb600480803573ffffffffffffffffffffffffffffffffffffffff16906020019091905050610c95565b604051808261ffff1661ffff16815260200191505060405180910390f35b6000600115156000809054906101000a900460ff16151514151561030c57600080fd5b600480549050905090565b6000809054906101000a900460ff1681565b60048181548110151561033857fe5b90600052602060002090016000915054906101000a900473ffffffffffffffffffffffffffffffffffffffff1681565b600115156000809054906101000a900460ff16151514151561038957600080fd5b5050565b60016000806101000a81548160ff021916908315150217905550565b6000806000600115156000809054906101000a900460ff1615151415156103cf57600080fd5b60008060009150600090505b6006805490508160ff161080156103f85750600360ff168160ff16105b1561075557600073ffffffffffffffffffffffffffffffffffffffff1660068260ff1681548110151561042757fe5b906000526020600020900160009054906101000a900473ffffffffffffffffffffffffffffffffffffffff1673ffffffffffffffffffffffffffffffffffffffff16141580156104df575060068160ff1681548110151561048457fe5b906000526020600020900160009054906101000a900473ffffffffffffffffffffffffffffffffffffffff1673ffffffffffffffffffffffffffffffffffffffff163373ffffffffffffffffffffffffffffffffffffffff16145b1561074857600191503393503273ffffffffffffffffffffffffffffffffffffffff163373ffffffffffffffffffffffffffffffffffffffff1614151561052557600080fd5b600d60048054905010151561053957600080fd5b600360009054906101000a900473ffffffffffffffffffffffffffffffffffffffff1673ffffffffffffffffffffffffffffffffffffffff16639ed93318856000604051602001526040518263ffffffff167c0100000000000000000000000000000000000000000000000000000000028152600401808273ffffffffffffffffffffffffffffffffffffffff1673ffffffffffffffffffffffffffffffffffffffff168152602001915050602060405180830381600087803b15156105fe57600080fd5b6102c65a03f1151561060f57600080fd5b5050506040518051905092506004805480600101828161062f9190610cb6565b9160005260206000209001600085909190916101000a81548173ffffffffffffffffffffffffffffffffffffffff021916908373ffffffffffffffffffffffffffffffffffffffff16021790555050600480549050600560008573ffffffffffffffffffffffffffffffffffffffff1673ffffffffffffffffffffffffffffffffffffffff16815260200190815260200160002060006101000a81548161ffff021916908361ffff1602179055507f093794466f44429afc8d8ec2c4c7f42c98d5db9b3db965ce46a31e7d4f7c29c883604051808273ffffffffffffffffffffffffffffffffffffffff1673ffffffffffffffffffffffffffffffffffffffff16815260200191505060405180910390a1829450610755565b80806001019150506103db565b81151561076157600080fd5b5050505090565b60008060008360003390508173ffffffffffffffffffffffffffffffffffffffff16638da5cb5b6000604051602001526040518163ffffffff167c0100000000000000000000000000000000000000000000000000000000028152600401602060405180830381600087803b15156107df57600080fd5b6102c65a03f115156107f057600080fd5b5050506040518051905073ffffffffffffffffffffffffffffffffffffffff168173ffffffffffffffffffffffffffffffffffffffff1614151561083357600080fd5b6000600560008373ffffffffffffffffffffffffffffffffffffffff1673ffffffffffffffffffffffffffffffffffffffff16815260200190815260200160002060009054906101000a900461ffff1661ffff1611151561089357600080fd5b600115156000809054906101000a900460ff1615151415156108b457600080fd5b3394508573ffffffffffffffffffffffffffffffffffffffff1663ae897c556000604051602001526040518163ffffffff167c0100000000000000000000000000000000000000000000000000000000028152600401602060405180830381600087803b151561092357600080fd5b6102c65a03f1151561093457600080fd5b5050506040518051905060ff168673ffffffffffffffffffffffffffffffffffffffff16630c3f6acf6000604051602001526040518163ffffffff167c0100000000000000000000000000000000000000000000000000000000028152600401602060405180830381600087803b15156109ad57600080fd5b6102c65a03f115156109be57600080fd5b5050506040518051905060ff161415156109d757600080fd5b8573ffffffffffffffffffffffffffffffffffffffff166383197ef06040518163ffffffff167c0100000000000000000000000000000000000000000000000000000000028152600401600060405180830381600087803b1515610a3a57600080fd5b6102c65a03f11515610a4b57600080fd5b5050506001600560008773ffffffffffffffffffffffffffffffffffffffff1673ffffffffffffffffffffffffffffffffffffffff16815260200190815260200160002060009054906101000a900461ffff16039350600560008673ffffffffffffffffffffffffffffffffffffffff1673ffffffffffffffffffffffffffffffffffffffff16815260200190815260200160002060006101000a81549061ffff02191690556004600160048054905003815481101515610b0857fe5b906000526020600020900160009054906101000a900473ffffffffffffffffffffffffffffffffffffffff1660048561ffff16815481101515610b4757fe5b906000526020600020900160006101000a81548173ffffffffffffffffffffffffffffffffffffffff021916908373ffffffffffffffffffffffffffffffffffffffff1602179055925060018401600560008573ffffffffffffffffffffffffffffffffffffffff1673ffffffffffffffffffffffffffffffffffffffff16815260200190815260200160002060006101000a81548161ffff021916908361ffff1602179055506004805480919060019003610c039190610ce2565b507f677f03e392472a48b617167ed4dbec758d26d8517257ec077bed2d27d192816486604051808273ffffffffffffffffffffffffffffffffffffffff1673ffffffffffffffffffffffffffffffffffffffff16815260200191505060405180910390a1505050505050565b600360009054906101000a900473ffffffffffffffffffffffffffffffffffffffff1681565b60056020528060005260406000206000915054906101000a900461ffff1681565b815481835581811511610cdd57818360005260206000209182019101610cdc9190610d0e565b5b505050565b815481835581811511610d0957818360005260206000209182019101610d089190610d0e565b5b505050565b610d3091905b80821115610d2c576000816000905550600101610d14565b5090565b905600a165627a7a7230582014dc5f2308e2fe6b21fa737322815a8e8c3cea1bbd2d0e308b4505c7383a5b9f0029",
  "source": "pragma solidity ^0.4.18;\n\nimport '../../lifecycle/Initializable.sol';\nimport './IWorkerNodeManager.sol';\n\n/**\n * @title Pandora Smart Contract\n * @author \"Dr Maxim Orlovsky\" <orlovsky@pandora.foundation>\n *\n * @dev # Pandora Smart Contract\n *\n * Main & root contract implementing the first level of Pandora Boxchain consensus\n * See section [\"3.3. Proof of Cognitive Work (PoCW)\" in Pandora white paper](https://steemit.com/cryptocurrency/%40pandoraboxchain/world-decentralized-ai-on-blockchain-with-cognitive-mining-and-open-markets-for-data-and-algorithms-pandora-boxchain)\n * for more details.\n *\n * Contract token functionality is separated into a separate contract named PAN (after the name of the token)\n * and Pandora contracts just simply inherits PAN contract.\n */\n\ncontract WorkerNodeManager is Initializable, IWorkerNodeManager {\n\n    /*******************************************************************************************************************\n     * ## Storage\n     */\n\n    /// ### Public variables\n\n    /// @notice Reference to a factory used in creating WorkerNode contracts\n    /// @dev Factories are used to reduce gas consumption by the main Pandora contract. Since Pandora needs to control\n    /// the code used to deploy Cognitive Jobs and Worker Nodes, it must embed all the byte code for the smart contract.\n    /// However this dramatically increases gas consumption for deploying Pandora contract itself. Thus, the\n    /// CognitiveJob smart contract is deployed by a special factory class `CognitiveJobFactory`, and a special workflow\n    /// is used to ensure uniqueness of the factories and the fact that their code source is coming from the same\n    /// address which have deployed the main Pandora contract. In particular, because of this Pandora is defined as an\n    /// `Ownable` contract and a special `initialize` function and `properlyInitialized` member variable is added.\n    WorkerNodeFactory public workerNodeFactory;\n\n    /// @notice List of registered worker nodes\n    /// @dev List of registered worker nodes\n    IWorkerNode[] public workerNodes;\n\n    /// @notice Index of registered worker nodes by their contract addresses mapping to their index in `workerNodes`.\n    /// @dev Index of registered worker nodes by their contract addresses. Used for quick checks instead of\n    /// gas-expensive search. Must have the same elements as `workerNodes`. Mapped +1 to the indexes of the contract in\n    /// `workerNodes`; zero value is reserved for the removed or non-existing workers.\n    /// At any point of time there must be less then 2^16 worker nodes.\n    mapping(address => uint16) public workerAddresses;\n\n    /// ### Private and internal variables\n\n    /// @dev Since in the initial Pyrrha release of Pandora network reputation, verification and arbitration mechanics\n    /// are under development it uses a set of pre-defined trusted addresses allowed to register worker nodes.\n    /// These are specified during initial Pandora contract deployment by the founders.\n    uint8 constant internal WORKERNODE_WHITELIST_SIZE = 3;\n\n    /// @dev Whitelist of node owners allowed to create nodes that perform cognitive work as a trusted environment\n    /// for the first version of the protocol implementation codenamed Pyrrha\n    address[] internal workerNodeOwners;\n\n    /*******************************************************************************************************************\n     * ## Events\n     */\n\n    /// @dev Event firing when there is another worker node created\n    event WorkerNodeCreated(IWorkerNode workerNode);\n\n    /// @dev Event firing when some worker node was destroyed\n    event WorkerNodeDestroyed(IWorkerNode workerNode);\n\n\n    /*******************************************************************************************************************\n     * ## Constructor and initialization\n     */\n\n    /// ### Constructor\n    /// @dev Constructor receives addresses for the owners of whitelisted worker nodes, which will be assigned an owners\n    /// of worker nodes contracts\n    function WorkerNodeManager (\n        WorkerNodeFactory _nodeFactory, /// Factory class for creating WorkerNode contracts\n        // Constant literal for array size in function arguments not working yet\n        address[3/*=WORKERNODE_WHITELIST_SIZE*/]\n            _workerNodeOwners /// Worker node owners to be whitelisted by the contract\n    ) public {\n        // Something is wrong with the compiler or Ethereum node if this check fails\n        // (that's why its `assert`, not `require`)\n        assert(_workerNodeOwners.length == WORKERNODE_WHITELIST_SIZE);\n\n        // Must ensure that the supplied factories are already created contracts\n        require(_nodeFactory != address(0));\n\n        // Assign factories to storage variables\n        workerNodeFactory = _nodeFactory;\n\n        // Iterate owners white list and add them to the contract storage\n        for (uint8 no = 0; no < _workerNodeOwners.length && no < WORKERNODE_WHITELIST_SIZE; no++) {\n            require(_workerNodeOwners[no] != address(0));\n            workerNodeOwners.push(_workerNodeOwners[no]);\n        }\n    }\n\n    /*******************************************************************************************************************\n     * ## Modifiers\n     */\n\n    /// @dev Checks that the function is called by the one of the nodes\n    modifier onlyWorkerNodes() {\n        require(workerAddresses[msg.sender] > 0);\n        _;\n    }\n\n    /// @dev Checks that the function is called by the owner of one of the whitelisted nodes\n    modifier onlyWhitelistedOwners() {\n        bool found = false;\n        for (uint8 no = 0; no < workerNodeOwners.length && no < WORKERNODE_WHITELIST_SIZE; no++) {\n            // Worker node must not be destroyed and its owner must be the sender of the current function call\n            if (workerNodeOwners[no] != address(0) &&\n                msg.sender == workerNodeOwners[no]) {\n                found = true;\n                _;\n                break;\n            }\n        }\n        // Failing if ownership conditions are not satisfied\n        require(found);\n    }\n\n    modifier checkWorkerAndOwner(\n        IWorkerNode _workerNode\n    ) {\n        address nodeOwner = msg.sender;\n        require(nodeOwner == address(_workerNode.owner()));\n        require(workerAddresses[nodeOwner] > 0);\n        _;\n    }\n\n    /*******************************************************************************************************************\n     * ## Functions\n     */\n\n    /// ### Public and external\n\n    /// @notice Returns count of registered worker nodes\n    function workerNodesCount()\n    onlyInitialized\n    public\n    view\n    returns (\n        uint /// Count of registered worker nodes\n    ) {\n        return workerNodes.length;\n    }\n\n    /// @notice Creates, registers and returns a new worker node owned by the caller of the contract.\n    /// Can be called only by the whitelisted node owner address.\n    function createWorkerNode()\n    external\n    onlyInitialized\n    onlyWhitelistedOwners\n    returns (\n        IWorkerNode /// Address of the created worker node\n    ) {\n        address nodeOwner = msg.sender;\n\n        // Worker node can be created only be external transactions, not by internal inter-contract messages\n        require(msg.sender == tx.origin);\n\n        /// Check that we do not reach limits in the node count\n        require(workerNodes.length < 2 ^ 16 - 1);\n\n        // @todo Check the stake and bind it\n\n        // Creating worker node by using factory. See `properlyInitialized` comments for more details on factories\n        IWorkerNode workerNode = workerNodeFactory.create(nodeOwner);\n        // We do not check the created `workerNode` since all checks are done by the factory class\n        workerNodes.push(workerNode);\n        // Saving index of the node in the `workerNodes` array (index + 1, zero is reserved for non-existing values)\n        workerAddresses[address(workerNode)] = uint16(workerNodes.length);\n\n        // Firing event\n        WorkerNodeCreated(workerNode);\n\n        return workerNode;\n    }\n\n    function penaltizeWorkerNode(\n        IWorkerNode _guiltyWorker,\n        IWorkerNode.Penalties _reason\n    )\n    external\n        // @fixme Implement the modifier and uncomment\n    onlyInitialized {\n        /// Can be called only by the assigned cognitive job\n        /// @todo Implement penalties from the bound worker node stakes\n    }\n\n    /// @notice Removes worker from the workers list and destroys it. Can be called only by the worker node owner\n    /// and only for the idle workers\n    function destroyWorkerNode(\n        IWorkerNode _workerNode\n    )\n    external\n    checkWorkerAndOwner(_workerNode) /// Worker node can be destroyed only by its owner\n    onlyInitialized {\n        address nodeOwner = msg.sender;\n\n        /// Can be called only for the idle workers\n        require(_workerNode.currentState() == _workerNode.Idle());\n\n        /// Call worker node destroy function (can be triggered only by this Pandora contract). All balance\n        /// is transferred to the node owner.\n        /// We do this before removing worker node from the lists since we need to ensure that the node didn't\n        /// got into non-idle state (self-destruct puts node into Destroyed state and it can't be assigned any\n        /// tasks after that)\n        _workerNode.destroy();\n\n        /// Immediately removing node from the lists\n        uint16 index = workerAddresses[nodeOwner] - 1;\n        delete workerAddresses[nodeOwner];\n        IWorkerNode movedWorker = workerNodes[index] = workerNodes[workerNodes.length - 1];\n        workerAddresses[movedWorker] = index + 1;\n        workerNodes.length--;\n\n        /// @todo Return the unspent stake\n\n        /// Firing the event\n        WorkerNodeDestroyed(_workerNode);\n    }\n}\n",
  "sourcePath": "/Users/orlovsky/Repositories/pandora/pyrrha-consensus/contracts/pandora/managers/WorkerNodeManager.sol",
  "compiler": {
    "name": "solc",
    "version": "0.4.18+commit.9cf6e910.Emscripten.clang"
  },
  "schemaVersion": "1.0.1",
  "updatedAt": "2017-12-19T15:26:39.792Z"
}